{
  "contractName": "Exponential",
  "abi": [
    {
      "inputs": [
        {
          "internalType": "uint256",
          "name": "num",
          "type": "uint256"
        },
        {
          "internalType": "uint256",
          "name": "denom",
          "type": "uint256"
        }
      ],
      "name": "getExp",
      "outputs": [
        {
          "internalType": "uint256",
          "name": "rational",
          "type": "uint256"
        }
      ],
      "stateMutability": "pure",
      "type": "function"
    },
    {
      "inputs": [
        {
          "internalType": "uint256",
          "name": "num",
          "type": "uint256"
        },
        {
          "internalType": "uint256",
          "name": "denom",
          "type": "uint256"
        }
      ],
      "name": "getDiv",
      "outputs": [
        {
          "internalType": "uint256",
          "name": "rational",
          "type": "uint256"
        }
      ],
      "stateMutability": "pure",
      "type": "function"
    },
    {
      "inputs": [
        {
          "internalType": "uint256",
          "name": "a",
          "type": "uint256"
        },
        {
          "internalType": "uint256",
          "name": "b",
          "type": "uint256"
        }
      ],
      "name": "addExp",
      "outputs": [
        {
          "internalType": "uint256",
          "name": "result",
          "type": "uint256"
        }
      ],
      "stateMutability": "pure",
      "type": "function"
    },
    {
      "inputs": [
        {
          "internalType": "uint256",
          "name": "a",
          "type": "uint256"
        },
        {
          "internalType": "uint256",
          "name": "b",
          "type": "uint256"
        }
      ],
      "name": "subExp",
      "outputs": [
        {
          "internalType": "uint256",
          "name": "result",
          "type": "uint256"
        }
      ],
      "stateMutability": "pure",
      "type": "function"
    },
    {
      "inputs": [
        {
          "internalType": "uint256",
          "name": "a",
          "type": "uint256"
        },
        {
          "internalType": "uint256",
          "name": "b",
          "type": "uint256"
        }
      ],
      "name": "mulExp",
      "outputs": [
        {
          "internalType": "uint256",
          "name": "",
          "type": "uint256"
        }
      ],
      "stateMutability": "pure",
      "type": "function"
    },
    {
      "inputs": [
        {
          "internalType": "uint256",
          "name": "a",
          "type": "uint256"
        },
        {
          "internalType": "uint256",
          "name": "b",
          "type": "uint256"
        }
      ],
      "name": "divExp",
      "outputs": [
        {
          "internalType": "uint256",
          "name": "",
          "type": "uint256"
        }
      ],
      "stateMutability": "pure",
      "type": "function"
    },
    {
      "inputs": [
        {
          "internalType": "uint256",
          "name": "a",
          "type": "uint256"
        },
        {
          "internalType": "uint256",
          "name": "b",
          "type": "uint256"
        },
        {
          "internalType": "uint256",
          "name": "c",
          "type": "uint256"
        }
      ],
      "name": "mulExp3",
      "outputs": [
        {
          "internalType": "uint256",
          "name": "",
          "type": "uint256"
        }
      ],
      "stateMutability": "pure",
      "type": "function"
    },
    {
      "inputs": [
        {
          "internalType": "uint256",
          "name": "a",
          "type": "uint256"
        },
        {
          "internalType": "uint256",
          "name": "scalar",
          "type": "uint256"
        }
      ],
      "name": "mulScalar",
      "outputs": [
        {
          "internalType": "uint256",
          "name": "scaled",
          "type": "uint256"
        }
      ],
      "stateMutability": "pure",
      "type": "function"
    },
    {
      "inputs": [
        {
          "internalType": "uint256",
          "name": "a",
          "type": "uint256"
        },
        {
          "internalType": "uint256",
          "name": "scalar",
          "type": "uint256"
        }
      ],
      "name": "mulScalarTruncate",
      "outputs": [
        {
          "internalType": "uint256",
          "name": "",
          "type": "uint256"
        }
      ],
      "stateMutability": "pure",
      "type": "function"
    },
    {
      "inputs": [
        {
          "internalType": "uint256",
          "name": "a",
          "type": "uint256"
        },
        {
          "internalType": "uint256",
          "name": "scalar",
          "type": "uint256"
        },
        {
          "internalType": "uint256",
          "name": "addend",
          "type": "uint256"
        }
      ],
      "name": "mulScalarTruncateAddUInt",
      "outputs": [
        {
          "internalType": "uint256",
          "name": "",
          "type": "uint256"
        }
      ],
      "stateMutability": "pure",
      "type": "function"
    },
    {
      "inputs": [
        {
          "internalType": "uint256",
          "name": "scalar",
          "type": "uint256"
        },
        {
          "internalType": "uint256",
          "name": "divisor",
          "type": "uint256"
        }
      ],
      "name": "divScalarByExpTruncate",
      "outputs": [
        {
          "internalType": "uint256",
          "name": "",
          "type": "uint256"
        }
      ],
      "stateMutability": "pure",
      "type": "function"
    },
    {
      "inputs": [
        {
          "internalType": "uint256",
          "name": "scalar",
          "type": "uint256"
        },
        {
          "internalType": "uint256",
          "name": "divisor",
          "type": "uint256"
        }
      ],
      "name": "divScalarByExp",
      "outputs": [
        {
          "internalType": "uint256",
          "name": "",
          "type": "uint256"
        }
      ],
      "stateMutability": "pure",
      "type": "function"
    },
    {
      "inputs": [
        {
          "internalType": "uint256",
          "name": "a",
          "type": "uint256"
        },
        {
          "internalType": "uint256",
          "name": "scalar",
          "type": "uint256"
        }
      ],
      "name": "divScalar",
      "outputs": [
        {
          "internalType": "uint256",
          "name": "",
          "type": "uint256"
        }
      ],
      "stateMutability": "pure",
      "type": "function"
    },
    {
      "inputs": [
        {
          "internalType": "uint256",
          "name": "exp",
          "type": "uint256"
        }
      ],
      "name": "truncate",
      "outputs": [
        {
          "internalType": "uint256",
          "name": "",
          "type": "uint256"
        }
      ],
      "stateMutability": "pure",
      "type": "function"
    }
  ],
  "bytecode": "0x608060405234801561001057600080fd5b50610703806100206000396000f3fe608060405234801561001057600080fd5b5060043610610107576000357c0100000000000000000000000000000000000000000000000000000000900480638de46362116100a9578063ba9316b711610083578063ba9316b7146101aa578063ce603aad14610282578063d6079cc6146102a5578063de32abd1146102c857610107565b80638de4636214610213578063b4ab15e71461023c578063b507f9f91461025f57610107565b80634751b79c116100e55780634751b79c146101875780635293ff31146101aa5780636208fc41146101cd5780637b94aaac146101f657610107565b80632985fa311461010c578063396a98cf146101415780634147da1314610164575b600080fd5b61012f6004803603604081101561012257600080fd5b50803590602001356102eb565b60408051918252519081900360200190f35b61012f6004803603604081101561015757600080fd5b5080359060200135610304565b61012f6004803603604081101561017a57600080fd5b5080359060200135610316565b61012f6004803603604081101561019d57600080fd5b5080359060200135610328565b61012f600480360360408110156101c057600080fd5b5080359060200135610340565b61012f600480360360608110156101e357600080fd5b508035906020810135906040013561036a565b61012f6004803603602081101561020c57600080fd5b503561039b565b61012f6004803603606081101561022957600080fd5b50803590602081013590604001356103b5565b61012f6004803603604081101561025257600080fd5b50803590602001356103d2565b61012f6004803603604081101561027557600080fd5b50803590602001356103ea565b61012f6004803603604081101561029857600080fd5b50803590602001356103f6565b61012f600480360360408110156102bb57600080fd5b508035906020013561041d565b61012f600480360360408110156102de57600080fd5b508035906020013561042a565b60006102fd838363ffffffff61046d16565b9392505050565b60006102fd838363ffffffff6104c916565b60006102fd838363ffffffff61050b16565b60006102fd838363ffffffff61056816565b92915050565b60006102fd8261035e85670de0b6b3a764000063ffffffff61046d16565b9063ffffffff61056816565b60008061037785856102eb565b9050610392836103868361039b565b9063ffffffff61050b16565b95945050505050565b600061033a82670de0b6b3a764000063ffffffff61056816565b60006103ca6103c4858561042a565b8361042a565b949350505050565b6000806103df84846102eb565b90506103ca8161039b565b60006102fd8383610340565b600080610411670de0b6b3a76400008563ffffffff61046d16565b90506103ca8184610340565b6000806103df84846103f6565b60008061043d848463ffffffff61046d16565b905060006104536706f05b59d3b200008361050b565b905061039281670de0b6b3a764000063ffffffff61056816565b60008261047c5750600061033a565b8282028284828161048957fe5b04146102fd5760405160e560020a62461bcd0281526004018080602001828103825260218152602001806106ad6021913960400191505060405180910390fd5b60006102fd83836040518060400160405280601e81526020017f536166654d6174683a207375627472616374696f6e206f766572666c6f7700008152506105aa565b6000828201838110156102fd576040805160e560020a62461bcd02815260206004820152601b60248201527f536166654d6174683a206164646974696f6e206f766572666c6f770000000000604482015290519081900360640190fd5b60006102fd83836040518060400160405280601a81526020017f536166654d6174683a206469766973696f6e206279207a65726f000000000000815250610644565b6000818484111561063c5760405160e560020a62461bcd0281526004018080602001828103825283818151815260200191508051906020019080838360005b838110156106015781810151838201526020016105e9565b50505050905090810190601f16801561062e5780820380516001836020036101000a031916815260200191505b509250505060405180910390fd5b505050900390565b600081836106965760405160e560020a62461bcd0281526020600482018181528351602484015283519092839260449091019190850190808383600083156106015781810151838201526020016105e9565b5060008385816106a257fe5b049594505050505056fe536166654d6174683a206d756c7469706c69636174696f6e206f766572666c6f77a264697066735822122008faf88825e4958b451e457644414771e0d6b4d3d5ea9978cfe30949d1678ade64736f6c63430006060033",
  "immutableReferences": {},
  "source": "// SPDX-License-Identifier: MIT\r\n\r\npragma solidity 0.6.6;\r\n\r\nimport \"./SafeMath.sol\";\r\n\r\ncontract Exponential {\r\n    uint256 constant expScale = 1e18;\r\n    uint256 constant doubleScale = 1e36;\r\n    uint256 constant halfExpScale = expScale / 2;\r\n\r\n    using SafeMath for uint256;\r\n\r\n    function getExp(uint256 num, uint256 denom)\r\n        public\r\n        pure\r\n        returns (uint256 rational)\r\n    {\r\n        rational = num.mul(expScale).div(denom);\r\n    }\r\n\r\n    function getDiv(uint256 num, uint256 denom)\r\n        public\r\n        pure\r\n        returns (uint256 rational)\r\n    {\r\n        rational = num.mul(expScale).div(denom);\r\n    }\r\n\r\n    function addExp(uint256 a, uint256 b) public pure returns (uint256 result) {\r\n        result = a.add(b);\r\n    }\r\n\r\n    function subExp(uint256 a, uint256 b) public pure returns (uint256 result) {\r\n        result = a.sub(b);\r\n    }\r\n\r\n    function mulExp(uint256 a, uint256 b) public pure returns (uint256) {\r\n        uint256 doubleScaledProduct = a.mul(b);\r\n\r\n        uint256 doubleScaledProductWithHalfScale = halfExpScale.add(\r\n            doubleScaledProduct\r\n        );\r\n\r\n        return doubleScaledProductWithHalfScale.div(expScale);\r\n    }\r\n\r\n    function divExp(uint256 a, uint256 b) public pure returns (uint256) {\r\n        return getDiv(a, b);\r\n    }\r\n\r\n    function mulExp3(\r\n        uint256 a,\r\n        uint256 b,\r\n        uint256 c\r\n    ) public pure returns (uint256) {\r\n        return mulExp(mulExp(a, b), c);\r\n    }\r\n\r\n    function mulScalar(uint256 a, uint256 scalar)\r\n        public\r\n        pure\r\n        returns (uint256 scaled)\r\n    {\r\n        scaled = a.mul(scalar);\r\n    }\r\n\r\n    function mulScalarTruncate(uint256 a, uint256 scalar)\r\n        public\r\n        pure\r\n        returns (uint256)\r\n    {\r\n        uint256 product = mulScalar(a, scalar);\r\n        return truncate(product);\r\n    }\r\n\r\n    function mulScalarTruncateAddUInt(\r\n        uint256 a,\r\n        uint256 scalar,\r\n        uint256 addend\r\n    ) public pure returns (uint256) {\r\n        uint256 product = mulScalar(a, scalar);\r\n        return truncate(product).add(addend);\r\n    }\r\n\r\n    function divScalarByExpTruncate(uint256 scalar, uint256 divisor)\r\n        public\r\n        pure\r\n        returns (uint256)\r\n    {\r\n        uint256 fraction = divScalarByExp(scalar, divisor);\r\n        return truncate(fraction);\r\n    }\r\n\r\n    function divScalarByExp(uint256 scalar, uint256 divisor)\r\n        public\r\n        pure\r\n        returns (uint256)\r\n    {\r\n        uint256 numerator = expScale.mul(scalar);\r\n        return getExp(numerator, divisor);\r\n    }\r\n\r\n    function divScalar(uint256 a, uint256 scalar)\r\n        public\r\n        pure\r\n        returns (uint256)\r\n    {\r\n        return a.div(scalar);\r\n    }\r\n\r\n    function truncate(uint256 exp) public pure returns (uint256) {\r\n        return exp.div(expScale);\r\n    }\r\n}",
  "sourcePath": "C:\\Users\\MKOPA\\Documents\\WORK\\UGARSOFT\\Fortube-Individual-Group-BSC\\contracts\\Fortube\\Exponential.sol",
  "compiler": {
    "name": "solc",
    "version": "0.6.6+commit.6c089d02.Emscripten.clang"
  },
  "schemaVersion": "3.3.4",
  "updatedAt": "2021-03-30T20:55:27.540Z",
  "devdoc": {
    "methods": {}
  },
  "userdoc": {
    "methods": {}
  }
}