{
  "contractName": "ForTubeBankAdapter",
  "abi": [
    {
      "inputs": [
        {
          "internalType": "address payable",
          "name": "serviceContract",
          "type": "address"
        }
      ],
      "stateMutability": "nonpayable",
      "type": "constructor"
    },
    {
      "inputs": [
        {
          "internalType": "uint256",
          "name": "a",
          "type": "uint256"
        },
        {
          "internalType": "uint256",
          "name": "b",
          "type": "uint256"
        }
      ],
      "name": "addExp",
      "outputs": [
        {
          "internalType": "uint256",
          "name": "result",
          "type": "uint256"
        }
      ],
      "stateMutability": "pure",
      "type": "function"
    },
    {
      "inputs": [
        {
          "internalType": "uint256",
          "name": "a",
          "type": "uint256"
        },
        {
          "internalType": "uint256",
          "name": "b",
          "type": "uint256"
        }
      ],
      "name": "divExp",
      "outputs": [
        {
          "internalType": "uint256",
          "name": "",
          "type": "uint256"
        }
      ],
      "stateMutability": "pure",
      "type": "function"
    },
    {
      "inputs": [
        {
          "internalType": "uint256",
          "name": "a",
          "type": "uint256"
        },
        {
          "internalType": "uint256",
          "name": "scalar",
          "type": "uint256"
        }
      ],
      "name": "divScalar",
      "outputs": [
        {
          "internalType": "uint256",
          "name": "",
          "type": "uint256"
        }
      ],
      "stateMutability": "pure",
      "type": "function"
    },
    {
      "inputs": [
        {
          "internalType": "uint256",
          "name": "scalar",
          "type": "uint256"
        },
        {
          "internalType": "uint256",
          "name": "divisor",
          "type": "uint256"
        }
      ],
      "name": "divScalarByExp",
      "outputs": [
        {
          "internalType": "uint256",
          "name": "",
          "type": "uint256"
        }
      ],
      "stateMutability": "pure",
      "type": "function"
    },
    {
      "inputs": [
        {
          "internalType": "uint256",
          "name": "scalar",
          "type": "uint256"
        },
        {
          "internalType": "uint256",
          "name": "divisor",
          "type": "uint256"
        }
      ],
      "name": "divScalarByExpTruncate",
      "outputs": [
        {
          "internalType": "uint256",
          "name": "",
          "type": "uint256"
        }
      ],
      "stateMutability": "pure",
      "type": "function"
    },
    {
      "inputs": [
        {
          "internalType": "uint256",
          "name": "num",
          "type": "uint256"
        },
        {
          "internalType": "uint256",
          "name": "denom",
          "type": "uint256"
        }
      ],
      "name": "getDiv",
      "outputs": [
        {
          "internalType": "uint256",
          "name": "rational",
          "type": "uint256"
        }
      ],
      "stateMutability": "pure",
      "type": "function"
    },
    {
      "inputs": [
        {
          "internalType": "uint256",
          "name": "num",
          "type": "uint256"
        },
        {
          "internalType": "uint256",
          "name": "denom",
          "type": "uint256"
        }
      ],
      "name": "getExp",
      "outputs": [
        {
          "internalType": "uint256",
          "name": "rational",
          "type": "uint256"
        }
      ],
      "stateMutability": "pure",
      "type": "function"
    },
    {
      "inputs": [
        {
          "internalType": "uint256",
          "name": "a",
          "type": "uint256"
        },
        {
          "internalType": "uint256",
          "name": "b",
          "type": "uint256"
        }
      ],
      "name": "mulExp",
      "outputs": [
        {
          "internalType": "uint256",
          "name": "",
          "type": "uint256"
        }
      ],
      "stateMutability": "pure",
      "type": "function"
    },
    {
      "inputs": [
        {
          "internalType": "uint256",
          "name": "a",
          "type": "uint256"
        },
        {
          "internalType": "uint256",
          "name": "b",
          "type": "uint256"
        },
        {
          "internalType": "uint256",
          "name": "c",
          "type": "uint256"
        }
      ],
      "name": "mulExp3",
      "outputs": [
        {
          "internalType": "uint256",
          "name": "",
          "type": "uint256"
        }
      ],
      "stateMutability": "pure",
      "type": "function"
    },
    {
      "inputs": [
        {
          "internalType": "uint256",
          "name": "a",
          "type": "uint256"
        },
        {
          "internalType": "uint256",
          "name": "scalar",
          "type": "uint256"
        }
      ],
      "name": "mulScalar",
      "outputs": [
        {
          "internalType": "uint256",
          "name": "scaled",
          "type": "uint256"
        }
      ],
      "stateMutability": "pure",
      "type": "function"
    },
    {
      "inputs": [
        {
          "internalType": "uint256",
          "name": "a",
          "type": "uint256"
        },
        {
          "internalType": "uint256",
          "name": "scalar",
          "type": "uint256"
        }
      ],
      "name": "mulScalarTruncate",
      "outputs": [
        {
          "internalType": "uint256",
          "name": "",
          "type": "uint256"
        }
      ],
      "stateMutability": "pure",
      "type": "function"
    },
    {
      "inputs": [
        {
          "internalType": "uint256",
          "name": "a",
          "type": "uint256"
        },
        {
          "internalType": "uint256",
          "name": "scalar",
          "type": "uint256"
        },
        {
          "internalType": "uint256",
          "name": "addend",
          "type": "uint256"
        }
      ],
      "name": "mulScalarTruncateAddUInt",
      "outputs": [
        {
          "internalType": "uint256",
          "name": "",
          "type": "uint256"
        }
      ],
      "stateMutability": "pure",
      "type": "function"
    },
    {
      "inputs": [],
      "name": "owner",
      "outputs": [
        {
          "internalType": "address payable",
          "name": "",
          "type": "address"
        }
      ],
      "stateMutability": "view",
      "type": "function"
    },
    {
      "inputs": [],
      "name": "serviceContract",
      "outputs": [
        {
          "internalType": "address payable",
          "name": "",
          "type": "address"
        }
      ],
      "stateMutability": "view",
      "type": "function"
    },
    {
      "inputs": [
        {
          "internalType": "uint256",
          "name": "a",
          "type": "uint256"
        },
        {
          "internalType": "uint256",
          "name": "b",
          "type": "uint256"
        }
      ],
      "name": "subExp",
      "outputs": [
        {
          "internalType": "uint256",
          "name": "result",
          "type": "uint256"
        }
      ],
      "stateMutability": "pure",
      "type": "function"
    },
    {
      "inputs": [
        {
          "internalType": "address payable",
          "name": "newServiceContract",
          "type": "address"
        }
      ],
      "name": "transferContractOwnership",
      "outputs": [],
      "stateMutability": "nonpayable",
      "type": "function"
    },
    {
      "inputs": [
        {
          "internalType": "address payable",
          "name": "newOwner",
          "type": "address"
        }
      ],
      "name": "transferOwnership",
      "outputs": [],
      "stateMutability": "nonpayable",
      "type": "function"
    },
    {
      "inputs": [
        {
          "internalType": "uint256",
          "name": "exp",
          "type": "uint256"
        }
      ],
      "name": "truncate",
      "outputs": [
        {
          "internalType": "uint256",
          "name": "",
          "type": "uint256"
        }
      ],
      "stateMutability": "pure",
      "type": "function"
    },
    {
      "inputs": [
        {
          "internalType": "uint256",
          "name": "amount",
          "type": "uint256"
        },
        {
          "internalType": "address",
          "name": "account",
          "type": "address"
        }
      ],
      "name": "Save",
      "outputs": [],
      "stateMutability": "nonpayable",
      "type": "function"
    },
    {
      "inputs": [],
      "name": "GetPricePerFullShare",
      "outputs": [
        {
          "internalType": "uint256",
          "name": "",
          "type": "uint256"
        }
      ],
      "stateMutability": "view",
      "type": "function"
    },
    {
      "inputs": [
        {
          "internalType": "address",
          "name": "account",
          "type": "address"
        }
      ],
      "name": "GetGrossRevenue",
      "outputs": [
        {
          "internalType": "uint256",
          "name": "",
          "type": "uint256"
        }
      ],
      "stateMutability": "view",
      "type": "function"
    },
    {
      "inputs": [
        {
          "internalType": "address",
          "name": "account",
          "type": "address"
        }
      ],
      "name": "GetNetRevenue",
      "outputs": [
        {
          "internalType": "uint256",
          "name": "",
          "type": "uint256"
        }
      ],
      "stateMutability": "view",
      "type": "function"
    },
    {
      "inputs": [
        {
          "internalType": "uint256",
          "name": "amount",
          "type": "uint256"
        },
        {
          "internalType": "address",
          "name": "owner",
          "type": "address"
        }
      ],
      "name": "Withdraw",
      "outputs": [],
      "stateMutability": "nonpayable",
      "type": "function"
    },
    {
      "inputs": [
        {
          "internalType": "uint256",
          "name": "amount",
          "type": "uint256"
        },
        {
          "internalType": "address",
          "name": "owner",
          "type": "address"
        },
        {
          "internalType": "uint256",
          "name": "sharesAmount",
          "type": "uint256"
        }
      ],
      "name": "WithdrawByShares",
      "outputs": [],
      "stateMutability": "nonpayable",
      "type": "function"
    },
    {
      "inputs": [
        {
          "internalType": "address",
          "name": "owner",
          "type": "address"
        },
        {
          "internalType": "uint256",
          "name": "sharesAmount",
          "type": "uint256"
        }
      ],
      "name": "WithdrawBySharesOnly",
      "outputs": [],
      "stateMutability": "nonpayable",
      "type": "function"
    },
    {
      "inputs": [
        {
          "internalType": "address",
          "name": "member",
          "type": "address"
        }
      ],
      "name": "GetBUSDBalance",
      "outputs": [
        {
          "internalType": "uint256",
          "name": "",
          "type": "uint256"
        }
      ],
      "stateMutability": "view",
      "type": "function"
    },
    {
      "inputs": [
        {
          "internalType": "address",
          "name": "member",
          "type": "address"
        }
      ],
      "name": "GetFBUSDBalance",
      "outputs": [
        {
          "internalType": "uint256",
          "name": "",
          "type": "uint256"
        }
      ],
      "stateMutability": "view",
      "type": "function"
    },
    {
      "inputs": [
        {
          "internalType": "address",
          "name": "member",
          "type": "address"
        }
      ],
      "name": "CalculateTotalBUSDEarned",
      "outputs": [
        {
          "internalType": "uint256",
          "name": "exchangeRate",
          "type": "uint256"
        }
      ],
      "stateMutability": "view",
      "type": "function"
    },
    {
      "inputs": [],
      "name": "ExchangeRateStoredBUSD",
      "outputs": [
        {
          "internalType": "uint256",
          "name": "exchangeRate",
          "type": "uint256"
        }
      ],
      "stateMutability": "view",
      "type": "function"
    }
  ],
  "bytecode": "0x61010060405234801561001157600080fd5b506040516121073803806121078339818101604052602081101561003457600080fd5b50516000805433600160a060020a031991821617825560018054909116600160a060020a039093169290921782556002919091557fe9e7cea3dedca5984780bafc599bd69add087d560000000000000000000000006080527f0cea0832e9cdbb5d476040d58ea07ecfbebb767200000000000000000000000060a0527f57160962dc107c8fbc2a619aca43f79fd03e755600000000000000000000000060c0527fc78248d676debb4597e88071d3d889eca70e546900000000000000000000000060e05273e9e7cea3dedca5984780bafc599bd69add087d5690730cea0832e9cdbb5d476040d58ea07ecfbebb7672907357160962dc107c8fbc2a619aca43f79fd03e75569073c78248d676debb4597e88071d3d889eca70e546990611f20906101e79039806114235250806106ca52806107a652806109855280610a215280610af45280610c205280610cd2528061103a52806111e952806115aa528061162d5250806115235280611787528061190352508061068452806108d85280610d31528061109952806113f452806114f252806117b6528061184d528061193252806119e15280611a645250611f206000f3fe608060405234801561001057600080fd5b50600436106101d35760003560e060020a900480638353ffca11610108578063ba9316b7116100a6578063df3b642d11610075578063df3b642d14610360578063dfba295414610529578063ef1dff551461055b578063f2fde38b14610587576101d3565b8063ba9316b7146102ee578063ce603aad146104c0578063d6079cc6146104e3578063de32abd114610506576101d3565b8063a4d86fb4116100e2578063a4d86fb41461042e578063a843c51f14610454578063b4ab15e71461047a578063b507f9f91461049d576101d3565b80638353ffca146103d15780638da5cb5b146103fd5780638de4636214610405576101d3565b80635293ff311161017557806370d27d7f1161014f57806370d27d7f1461036057806373faaf38146103685780637b94aaac1461038e5780637bdc9ad4146103ab576101d3565b80635293ff31146102ee5780636208fc41146103115780636f547f9e1461033a576101d3565b8063364dab10116101b1578063364dab1014610261578063396a98cf146102855780634147da13146102a85780634751b79c146102cb576101d3565b80632985fa31146101d8578063330e35c91461020d57806333d3afa61461023b575b600080fd5b6101fb600480360360408110156101ee57600080fd5b50803590602001356105ad565b60408051918252519081900360200190f35b6102396004803603604081101561022357600080fd5b5080359060200135600160a060020a03166105c6565b005b6101fb6004803603602081101561025157600080fd5b5035600160a060020a03166106c5565b61026961082e565b60408051600160a060020a039092168252519081900360200190f35b6101fb6004803603604081101561029b57600080fd5b508035906020013561083d565b6101fb600480360360408110156102be57600080fd5b508035906020013561084f565b6101fb600480360360408110156102e157600080fd5b5080359060200135610861565b6101fb6004803603604081101561030457600080fd5b5080359060200135610879565b6101fb6004803603606081101561032757600080fd5b50803590602081013590604001356108a3565b6101fb6004803603602081101561035057600080fd5b5035600160a060020a03166108d4565b6101fb610981565b6101fb6004803603602081101561037e57600080fd5b5035600160a060020a0316610a10565b6101fb600480360360208110156103a457600080fd5b5035610ad6565b6101fb600480360360208110156103c157600080fd5b5035600160a060020a0316610af0565b610239600480360360408110156103e757600080fd5b5080359060200135600160a060020a0316610b6b565b610269610dc1565b6101fb6004803603606081101561041b57600080fd5b5080359060208101359060400135610dd0565b6101fb6004803603602081101561044457600080fd5b5035600160a060020a0316610ded565b6102396004803603602081101561046a57600080fd5b5035600160a060020a0316610e40565b6101fb6004803603604081101561049057600080fd5b5080359060200135610ee0565b6101fb600480360360408110156104b357600080fd5b5080359060200135610ef8565b6101fb600480360360408110156104d657600080fd5b5080359060200135610f04565b6101fb600480360360408110156104f957600080fd5b5080359060200135610f2b565b6101fb6004803603604081101561051c57600080fd5b5080359060200135610f38565b6102396004803603606081101561053f57600080fd5b50803590600160a060020a036020820135169060400135610f7b565b6102396004803603604081101561057157600080fd5b50600160a060020a03813516906020013561112a565b6102396004803603602081101561059d57600080fd5b5035600160a060020a031661122b565b60006105bf838363ffffffff61130816565b9392505050565b60028054141561060e576040805160e560020a62461bcd02815260206004820152601f6024820152600080516020611e60833981519152604482015290519081900360640190fd5b60028055600054600160a060020a03163314806106355750600154600160a060020a031633145b610677576040805160e560020a62461bcd02815260206004820152601f6024820152600080516020611e80833981519152604482015290519081900360640190fd5b6106b2600160a060020a037f00000000000000000000000000000000000000000000000000000000000000001682308563ffffffff61136416565b6106bc82826113f2565b50506001600255565b6000807f0000000000000000000000000000000000000000000000000000000000000000600160a060020a03166370a08231846040518263ffffffff1660e060020a0281526004018082600160a060020a0316600160a060020a0316815260200191505060206040518083038186803b15801561074157600080fd5b505afa158015610755573d6000803e3d6000fd5b505050506040513d602081101561076b57600080fd5b5051604080517f182df0f50000000000000000000000000000000000000000000000000000000081529051919250600091600160a060020a037f0000000000000000000000000000000000000000000000000000000000000000169163182df0f5916004808301926020929190829003018186803b1580156107ec57600080fd5b505afa158015610800573d6000803e3d6000fd5b505050506040513d602081101561081657600080fd5b505190506108248282610ee0565b925050505b919050565b600154600160a060020a031681565b60006105bf838363ffffffff6116a416565b60006105bf838363ffffffff6116e616565b60006105bf838363ffffffff61174316565b92915050565b60006105bf8261089785670de0b6b3a764000063ffffffff61130816565b9063ffffffff61174316565b6000806108b085856105ad565b90506108cb836108bf83610ad6565b9063ffffffff6116e616565b95945050505050565b60007f0000000000000000000000000000000000000000000000000000000000000000600160a060020a03166370a08231836040518263ffffffff1660e060020a0281526004018082600160a060020a0316600160a060020a0316815260200191505060206040518083038186803b15801561094f57600080fd5b505afa158015610963573d6000803e3d6000fd5b505050506040513d602081101561097957600080fd5b505192915050565b60007f0000000000000000000000000000000000000000000000000000000000000000600160a060020a031663182df0f56040518163ffffffff1660e060020a02815260040160206040518083038186803b1580156109df57600080fd5b505afa1580156109f3573d6000803e3d6000fd5b505050506040513d6020811015610a0957600080fd5b5051905090565b600080610a1b610981565b905060007f0000000000000000000000000000000000000000000000000000000000000000600160a060020a03166370a08231856040518263ffffffff1660e060020a0281526004018082600160a060020a0316600160a060020a0316815260200191505060206040518083038186803b158015610a9857600080fd5b505afa158015610aac573d6000803e3d6000fd5b505050506040513d6020811015610ac257600080fd5b50519050610824818363ffffffff61130816565b600061087382670de0b6b3a764000063ffffffff61174316565b60007f0000000000000000000000000000000000000000000000000000000000000000600160a060020a03166370a08231836040518263ffffffff1660e060020a0281526004018082600160a060020a0316600160a060020a0316815260200191505060206040518083038186803b15801561094f57600080fd5b600280541415610bb3576040805160e560020a62461bcd02815260206004820152601f6024820152600080516020611e60833981519152604482015290519081900360640190fd5b60028055600054600160a060020a0316331480610bda5750600154600160a060020a031633145b610c1c576040805160e560020a62461bcd02815260206004820152601f6024820152600080516020611e80833981519152604482015290519081900360640190fd5b60007f0000000000000000000000000000000000000000000000000000000000000000600160a060020a03166370a08231836040518263ffffffff1660e060020a0281526004018082600160a060020a0316600160a060020a0316815260200191505060206040518083038186803b158015610c9757600080fd5b505afa158015610cab573d6000803e3d6000fd5b505050506040513d6020811015610cc157600080fd5b50519050610d00600160a060020a037f00000000000000000000000000000000000000000000000000000000000000001683308463ffffffff61136416565b610d0b828285611785565b6040805160e060020a6370a082310281523060048201529051600091600160a060020a037f000000000000000000000000000000000000000000000000000000000000000016916370a0823191602480820192602092909190829003018186803b158015610d7857600080fd5b505afa158015610d8c573d6000803e3d6000fd5b505050506040513d6020811015610da257600080fd5b505190508015610db657610db681846113f2565b505060016002555050565b600054600160a060020a031681565b6000610de5610ddf8585610f38565b83610f38565b949350505050565b600080610df983610a10565b600160a060020a03841660009081526003602052604090205490915080821115610e3657610e2d828263ffffffff6116a416565b92505050610829565b5060009392505050565b600054600160a060020a0316331480610e635750600154600160a060020a031633145b610ea5576040805160e560020a62461bcd02815260206004820152601f6024820152600080516020611e80833981519152604482015290519081900360640190fd5b600160a060020a03811615610edd576001805473ffffffffffffffffffffffffffffffffffffffff1916600160a060020a0383161790555b50565b600080610eed84846105ad565b9050610de581610ad6565b60006105bf8383610879565b600080610f1f670de0b6b3a76400008563ffffffff61130816565b9050610de58184610879565b600080610eed8484610f04565b600080610f4b848463ffffffff61130816565b90506000610f616706f05b59d3b20000836116e6565b90506108cb81670de0b6b3a764000063ffffffff61174316565b600280541415610fc3576040805160e560020a62461bcd02815260206004820152601f6024820152600080516020611e60833981519152604482015290519081900360640190fd5b60028055600054600160a060020a0316331480610fea5750600154600160a060020a031633145b61102c576040805160e560020a62461bcd02815260206004820152601f6024820152600080516020611e80833981519152604482015290519081900360640190fd5b80611068600160a060020a037f00000000000000000000000000000000000000000000000000000000000000001684308463ffffffff61136416565b611073838286611785565b6040805160e060020a6370a082310281523060048201529051600091600160a060020a037f000000000000000000000000000000000000000000000000000000000000000016916370a0823191602480820192602092909190829003018186803b1580156110e057600080fd5b505afa1580156110f4573d6000803e3d6000fd5b505050506040513d602081101561110a57600080fd5b50519050801561111e5761111e81856113f2565b50506001600255505050565b600280541415611172576040805160e560020a62461bcd02815260206004820152601f6024820152600080516020611e60833981519152604482015290519081900360640190fd5b60028055600054600160a060020a03163314806111995750600154600160a060020a031633145b6111db576040805160e560020a62461bcd02815260206004820152601f6024820152600080516020611e80833981519152604482015290519081900360640190fd5b80611217600160a060020a037f00000000000000000000000000000000000000000000000000000000000000001684308463ffffffff61136416565b6112218382611901565b5050600160025550565b600054600160a060020a0316331461127b576040805160e560020a62461bcd02815260206004820152601f6024820152600080516020611e80833981519152604482015290519081900360640190fd5b600160a060020a0381166112d9576040805160e560020a62461bcd02815260206004820152601660248201527f616464726573732063616e6e6f74206265207a65726f00000000000000000000604482015290519081900360640190fd5b6000805473ffffffffffffffffffffffffffffffffffffffff1916600160a060020a0392909216919091179055565b60008261131757506000610873565b8282028284828161132457fe5b04146105bf5760405160e560020a62461bcd028152600401808060200182810382526021815260200180611ea06021913960400191505060405180910390fd5b60408051600160a060020a0380861660248301528416604482015260648082018490528251808303909101815260849091019091526020810180517bffffffffffffffffffffffffffffffffffffffffffffffffffffffff167f23b872dd000000000000000000000000000000000000000000000000000000001790526113ec908590611a91565b50505050565b7f0000000000000000000000000000000000000000000000000000000000000000600160a060020a031663095ea7b37f0000000000000000000000000000000000000000000000000000000000000000846040518363ffffffff1660e060020a0281526004018083600160a060020a0316600160a060020a0316815260200182815260200192505050602060405180830381600087803b15801561149557600080fd5b505af11580156114a9573d6000803e3d6000fd5b505050506040513d60208110156114bf57600080fd5b5050604080517f47e7ef24000000000000000000000000000000000000000000000000000000008152600160a060020a037f0000000000000000000000000000000000000000000000000000000000000000811660048301526024820185905291517f0000000000000000000000000000000000000000000000000000000000000000909216916347e7ef249160448082019260009290919082900301818387803b15801561156d57600080fd5b505af1158015611581573d6000803e3d6000fd5b50506040805160e060020a6370a08231028152306004820152905160009350600160a060020a037f00000000000000000000000000000000000000000000000000000000000000001692506370a0823191602480820192602092909190829003018186803b1580156115f257600080fd5b505afa158015611606573d6000803e3d6000fd5b505050506040513d602081101561161c57600080fd5b5051905061165a600160a060020a037f000000000000000000000000000000000000000000000000000000000000000016838363ffffffff611b4516565b600160a060020a038216600090815260036020526040902054611683908463ffffffff6116e616565b600160a060020a039092166000908152600360205260409020919091555050565b60006105bf83836040518060400160405280601e81526020017f536166654d6174683a207375627472616374696f6e206f766572666c6f770000815250611bc5565b6000828201838110156105bf576040805160e560020a62461bcd02815260206004820152601b60248201527f536166654d6174683a206164646974696f6e206f766572666c6f770000000000604482015290519081900360640190fd5b60006105bf83836040518060400160405280601a81526020017f536166654d6174683a206469766973696f6e206279207a65726f000000000000815250611c5f565b7f0000000000000000000000000000000000000000000000000000000000000000600160a060020a031663f3fef3a37f0000000000000000000000000000000000000000000000000000000000000000846040518363ffffffff1660e060020a0281526004018083600160a060020a0316600160a060020a0316815260200182815260200192505050600060405180830381600087803b15801561182857600080fd5b505af115801561183c573d6000803e3d6000fd5b5061187c925050600160a060020a037f0000000000000000000000000000000000000000000000000000000000000000169050848363ffffffff611b4516565b600160a060020a03831660009081526003602052604090205481116118e257600160a060020a0383166000908152600360205260409020546118c4908263ffffffff6116a416565b600160a060020a0384166000908152600360205260409020556118fc565b600160a060020a0383166000908152600360205260408120555b505050565b7f0000000000000000000000000000000000000000000000000000000000000000600160a060020a031663f3fef3a37f0000000000000000000000000000000000000000000000000000000000000000836040518363ffffffff1660e060020a0281526004018083600160a060020a0316600160a060020a0316815260200182815260200192505050600060405180830381600087803b1580156119a457600080fd5b505af11580156119b8573d6000803e3d6000fd5b50506040805160e060020a6370a08231028152306004820152905160009350600160a060020a037f00000000000000000000000000000000000000000000000000000000000000001692506370a0823191602480820192602092909190829003018186803b158015611a2957600080fd5b505afa158015611a3d573d6000803e3d6000fd5b505050506040513d6020811015611a5357600080fd5b5051905061187c600160a060020a037f000000000000000000000000000000000000000000000000000000000000000016848363ffffffff611b4516565b6060611ae6826040518060400160405280602081526020017f5361666545524332303a206c6f772d6c6576656c2063616c6c206661696c656481525085600160a060020a0316611cc79092919063ffffffff16565b8051909150156118fc57808060200190516020811015611b0557600080fd5b50516118fc5760405160e560020a62461bcd02815260040180806020018281038252602a815260200180611ec1602a913960400191505060405180910390fd5b60408051600160a060020a038416602482015260448082018490528251808303909101815260649091019091526020810180517bffffffffffffffffffffffffffffffffffffffffffffffffffffffff167fa9059cbb000000000000000000000000000000000000000000000000000000001790526118fc908490611a91565b60008184841115611c575760405160e560020a62461bcd0281526004018080602001828103825283818151815260200191508051906020019080838360005b83811015611c1c578181015183820152602001611c04565b50505050905090810190601f168015611c495780820380516001836020036101000a031916815260200191505b509250505060405180910390fd5b505050900390565b60008183611cb15760405160e560020a62461bcd028152602060048201818152835160248401528351909283926044909101919085019080838360008315611c1c578181015183820152602001611c04565b506000838581611cbd57fe5b0495945050505050565b6060610de5848460008585611cdb85611df0565b611d2f576040805160e560020a62461bcd02815260206004820152601d60248201527f416464726573733a2063616c6c20746f206e6f6e2d636f6e7472616374000000604482015290519081900360640190fd5b6000606086600160a060020a031685876040518082805190602001908083835b60208310611d6e5780518252601f199092019160209182019101611d4f565b6001836020036101000a03801982511681845116808217855250505050505090500191505060006040518083038185875af1925050503d8060008114611dd0576040519150601f19603f3d011682016040523d82523d6000602084013e611dd5565b606091505b5091509150611de5828286611df6565b979650505050505050565b3b151590565b60608315611e055750816105bf565b825115611e155782518084602001fd5b60405160e560020a62461bcd028152602060048201818152845160248401528451859391928392604401919085019080838360008315611c1c578181015183820152602001611c0456fe5265656e7472616e637947756172643a207265656e7472616e742063616c6c00556e617574686f72697a65642061636365737320746f20636f6e747261637400536166654d6174683a206d756c7469706c69636174696f6e206f766572666c6f775361666545524332303a204552433230206f7065726174696f6e20646964206e6f742073756363656564a264697066735822122090f4cb96368ccaede444419539fd040cd92ab95fe67a6c6ebeb65e267b7931be64736f6c63430006060033",
  "immutableReferences": {
    "2887": [
      {
        "length": 32,
        "start": 1668
      },
      {
        "length": 32,
        "start": 2264
      },
      {
        "length": 32,
        "start": 3377
      },
      {
        "length": 32,
        "start": 4249
      },
      {
        "length": 32,
        "start": 5108
      },
      {
        "length": 32,
        "start": 5362
      },
      {
        "length": 32,
        "start": 6070
      },
      {
        "length": 32,
        "start": 6221
      },
      {
        "length": 32,
        "start": 6450
      },
      {
        "length": 32,
        "start": 6625
      },
      {
        "length": 32,
        "start": 6756
      }
    ],
    "2889": [
      {
        "length": 32,
        "start": 5411
      },
      {
        "length": 32,
        "start": 6023
      },
      {
        "length": 32,
        "start": 6403
      }
    ],
    "2891": [
      {
        "length": 32,
        "start": 1738
      },
      {
        "length": 32,
        "start": 1958
      },
      {
        "length": 32,
        "start": 2437
      },
      {
        "length": 32,
        "start": 2593
      },
      {
        "length": 32,
        "start": 2804
      },
      {
        "length": 32,
        "start": 3104
      },
      {
        "length": 32,
        "start": 3282
      },
      {
        "length": 32,
        "start": 4154
      },
      {
        "length": 32,
        "start": 4585
      },
      {
        "length": 32,
        "start": 5546
      },
      {
        "length": 32,
        "start": 5677
      }
    ],
    "2893": [
      {
        "length": 32,
        "start": 5155
      }
    ]
  },
  "source": "pragma solidity 0.6.6;\r\n\r\nimport \"./IBank.sol\";\r\nimport \"./IFToken.sol\";\r\nimport \"./IBankController.sol\";\r\nimport \"./IERC20.sol\";\r\nimport \"./SafeMath.sol\";\r\nimport \"./Ownable.sol\";\r\nimport \"./Exponential.sol\";\r\nimport \"./ReentrancyGuard.sol\";\r\nimport \"./SafeERC20.sol\";\r\n\r\ncontract ForTubeBankAdapter is Ownable, Exponential, ReentrancyGuard {\r\n    \r\n\r\n    using SafeMath for uint256;\r\n    \r\n    using SafeERC20 for IERC20; \r\n\r\n    using SafeERC20 for IFToken; \r\n\r\n    IERC20 immutable _BUSD;\r\n\r\n    IBank immutable _bank;\r\n\r\n    IFToken immutable _fBUSD;  //  BUSD shares\r\n\r\n    IBankController immutable _bankController;\r\n    \r\n    mapping(address => uint256) userBUSDdeposits;\r\n\r\n\r\n    constructor(address payable serviceContract) public Ownable(serviceContract){\r\n        _BUSD = IERC20(0xe9e7CEA3DedcA5984780Bafc599bD69ADd087D56);  // Pegged-BUSD address on BSC Main Network\r\n        _bank = IBank(0x0cEA0832e9cdBb5D476040D58Ea07ecfbeBB7672);              //  Bank Contract on BSC Main Network\r\n        _fBUSD = IFToken(0x57160962Dc107C8FBC2A619aCA43F79Fd03E7556);           //  FToken - ForTube shares for BUSD Deposit\r\n        _bankController = IBankController(0xc78248D676DeBB4597e88071D3d889eCA70E5469);      // Bank Controller Contract on BSC Main Network   \r\n    }\r\n    \r\n\r\n    /*\r\n        account: this is the owner of the DAi token\r\n    */\r\n    function Save(uint256 amount, address account)\r\n        public nonReentrant\r\n        onlyOwnerAndServiceContract\r\n    {\r\n        //  Give allowance that a spender can spend on behalf of the owner. NOTE: This approve function has to be called from outside this smart contract because if you call\r\n        //  it from the smart contract, it will use the smart contract address as msg.sender which is not what we want,\r\n        //  we want the address with the DAI token to be the one that will be msg.sender. Hence the line below will not work and needs to be called\r\n        //  from Javascript or C# environment\r\n        //   dai.approve(address(this),amount); (Not work)\r\n\r\n        //  See example with Node.js below\r\n        //  await daiContract.methods.approve(\"recipient(in our case, this smart contract address)\",1000000).send({from: \"wallet address with DAI\"});\r\n\r\n        //  Transfer BUSD from the account address to this smart contract address\r\n        _BUSD.safeTransferFrom(account, address(this), amount);\r\n\r\n        //  This gives the yDAI contract approval to invest our DAI\r\n        _save(amount, account);\r\n    }\r\n\r\n    function GetPricePerFullShare() public view returns (uint256){\r\n\r\n        return _fBUSD.exchangeRateStored();\r\n    }\r\n\r\n    //  This function returns your DAI balance + interest. NOTE: There is no function in Yearn finance that gives you the direct balance of DAI\r\n    //  So you have to get it in two steps\r\n\r\n    function GetGrossRevenue(address account) public view returns (uint256) {\r\n        //  Get the price per full share\r\n        uint256 price = GetPricePerFullShare();\r\n\r\n        //  Get the balance of yDai in this users address\r\n        uint256 balanceShares = _fBUSD.balanceOf(account);\r\n\r\n        return balanceShares.mul(price);\r\n    }\r\n\r\n    function GetNetRevenue(address account) public view returns (uint256) {\r\n        uint256 grossBalance = GetGrossRevenue(account);\r\n\r\n        uint256 userBUSDdepositsBalance = userBUSDdeposits[account];\r\n\r\n        if(grossBalance > userBUSDdepositsBalance){\r\n        \r\n            return grossBalance.sub(userBUSDdepositsBalance);\r\n        }\r\n        return 0;\r\n    }\r\n\r\n    function Withdraw(uint256 amount, address owner)\r\n        public \r\n        nonReentrant onlyOwnerAndServiceContract\r\n    {\r\n        //  To withdraw our DAi amount, the amount argument is in DAi but the withdraw function of the vDai expects amount in vDai\r\n        //  So we need to find our balance in vDai\r\n\r\n        uint256 balanceShares = _fBUSD.balanceOf(owner);\r\n\r\n        //  transfer vDai shares From owner to this contract address\r\n        _fBUSD.safeTransferFrom(owner, address(this), balanceShares);\r\n\r\n        //  We now call the withdraw function to withdraw the total DAi we have. This withdrawal is sent to this smart contract\r\n        _withdrawBySharesAndAmount(owner,balanceShares,amount);\r\n\r\n        //  If we have some DAi left after transferring a specified amount to a recipient, we can re-invest it in yearn finance\r\n        uint256 balanceBUSD = _BUSD.balanceOf(address(this));\r\n\r\n        if (balanceBUSD > 0) {\r\n            //  This gives the _fBUSD contract approval to invest our DAi\r\n            _save(balanceBUSD, owner);\r\n        }\r\n    }\r\n\r\n    function WithdrawByShares(\r\n        uint256 amount,\r\n        address owner,\r\n        uint256 sharesAmount\r\n    ) public\r\n    nonReentrant onlyOwnerAndServiceContract\r\n    {\r\n        //  To withdraw our DAI amount, the amount argument is in DAI but the withdraw function of the yDAI expects amount in yDAI token\r\n\r\n        uint256 balanceShares = sharesAmount;\r\n\r\n        //  transfer _fBUSD From owner to this contract address\r\n        _fBUSD.safeTransferFrom(owner, address(this), balanceShares);\r\n\r\n        //  We now call the withdraw function to withdraw the total DAi we have. This withdrawal is sent to this smart contract\r\n        _withdrawBySharesAndAmount(owner,balanceShares,amount);\r\n\r\n        //  If we have some DAI left after transferring a specified amount to a recipient, we can re-invest it in yearn finance\r\n        uint256 balanceBUSD = _BUSD.balanceOf(address(this));\r\n\r\n        if (balanceBUSD > 0) {\r\n            //  This gives the yDAI contract approval to invest our DAI\r\n            _save(balanceBUSD, owner);\r\n        }\r\n    }\r\n\r\n    /*\r\n        this function withdraws all the dai to this contract based on the sharesAmount passed\r\n    */\r\n    function WithdrawBySharesOnly(address owner, uint256 sharesAmount)\r\n        public\r\n        nonReentrant onlyOwnerAndServiceContract\r\n    {\r\n        uint256 balanceShares = sharesAmount;\r\n\r\n        //  transfer _fBUSD shares From owner to this contract address\r\n        _fBUSD.safeTransferFrom(owner, address(this), balanceShares);\r\n\r\n        //  We now call the withdraw function to withdraw the total DAI we have. This withdrawal is sent to this smart contract\r\n        _withdrawBySharesOnly(owner,balanceShares);\r\n\r\n    }\r\n\r\n    //  This function is an internal function that enabled DAI contract where user has money to approve the yDai contract address to invest the user's DAI\r\n    //  and to send the yDai shares to the user's address\r\n    function _save(uint256 amount, address account) internal {\r\n        //  Approve Bank Controller Contract to be able to spend BUSD in this contract\r\n        _BUSD.approve(address(_bankController),amount);\r\n\r\n        //  deposit the BUSD on ForTube's Bank contract\r\n        _bank.deposit(address(_BUSD),amount);\r\n\r\n        //  call balanceOf and get the total balance of vDai shares in this contract\r\n        uint256 shares = _fBUSD.balanceOf(address(this));\r\n\r\n        //  transfer the _fBUSD shares to the user's address\r\n        _fBUSD.safeTransfer(account, shares);\r\n\r\n        //  add deposited dai to userBUSDdeposits mapping\r\n        userBUSDdeposits[account] = userBUSDdeposits[account].add(amount);\r\n    }   \r\n\r\n    \r\n\r\n    function GetBUSDBalance(address member) external view returns(uint256){\r\n        return _BUSD.balanceOf(member);\r\n    }\r\n    \r\n    function GetFBUSDBalance(address member) external view returns(uint256){\r\n        return _fBUSD.balanceOf(member);\r\n    }\r\n    \r\n    /**\r\n        Gets the total BUSD the user has earned \r\n        \r\n        Total BUSD = price per fBUSD * _fBUSD.balanceOf(address)\r\n        \r\n        This gives us the amount we deposited plus interest accrued\r\n    */\r\n    function CalculateTotalBUSDEarned(address member) external view returns (uint256 exchangeRate){\r\n        uint fBUSDBalance = _fBUSD.balanceOf(member);\r\n        uint currentPricePerFullShareOfFBUSD = _fBUSD.exchangeRateStored();\r\n        return mulScalarTruncate(fBUSDBalance,currentPricePerFullShareOfFBUSD);\r\n    }\r\n    \r\n        /**\r\n        Gets the price per full share for the respective fToken \r\n    */\r\n    function ExchangeRateStoredBUSD() external view returns (uint256 exchangeRate){\r\n        return _fBUSD.exchangeRateStored();\r\n    }\r\n\r\n    function _withdrawBySharesOnly(address owner, uint256 balanceShares) internal {\r\n\r\n        //  We now call the withdraw function to withdraw the total BUSD we have. This withdrawal is sent to this smart contract\r\n        _bank.withdraw(address(_BUSD),balanceShares);\r\n\r\n        uint256 contractBUSDBalance = _BUSD.balanceOf(address(this));\r\n\r\n        //  Now all the DAI we have are in the smart contract wallet, we can now transfer the total amount to the recipient\r\n        _BUSD.safeTransfer(owner, contractBUSDBalance);\r\n\r\n        //   remove withdrawn dai of this owner from userBUSDdeposits mapping\r\n        if (userBUSDdeposits[owner] >= contractBUSDBalance) {\r\n            userBUSDdeposits[owner] = userBUSDdeposits[owner].sub(\r\n                contractBUSDBalance\r\n            );\r\n        } else {\r\n            userBUSDdeposits[owner] = 0;\r\n        }\r\n    }\r\n    \r\n    function _withdrawBySharesAndAmount(address owner, uint256 balanceShares, uint256 amount) internal {\r\n        \r\n        //  We now call the withdraw function to withdraw the total BUSD we have. This withdrawal is sent to this smart contract\r\n        _bank.withdraw(address(_BUSD),balanceShares);\r\n\r\n        //  Now all the DAi we have are in the smart contract wallet, we can now transfer the specified amount to a recipient of our choice\r\n        _BUSD.safeTransfer(owner, amount);\r\n        \r\n\r\n        //   remove withdrawn DAi of this owner from userBUSDdeposits mapping\r\n        if (userBUSDdeposits[owner] >= amount) {\r\n            userBUSDdeposits[owner] = userBUSDdeposits[owner].sub(\r\n                amount\r\n            );\r\n        } else {\r\n            userBUSDdeposits[owner] = 0;\r\n        }\r\n    }\r\n\r\n}",
  "sourcePath": "C:\\Users\\MKOPA\\Documents\\WORK\\UGARSOFT\\Fortube-Individual-Group-BSC\\contracts\\Fortube\\ForTubeBankAdapter.sol",
  "compiler": {
    "name": "solc",
    "version": "0.6.6+commit.6c089d02.Emscripten.clang"
  },
  "schemaVersion": "3.3.4",
  "updatedAt": "2021-03-30T20:55:27.547Z",
  "devdoc": {
    "methods": {}
  },
  "userdoc": {
    "methods": {
      "CalculateTotalBUSDEarned(address)": {
        "notice": "Gets the total BUSD the user has earned  Total BUSD = price per fBUSD * _fBUSD.balanceOf(address) This gives us the amount we deposited plus interest accrued"
      },
      "ExchangeRateStoredBUSD()": {
        "notice": "Gets the price per full share for the respective fToken "
      }
    }
  }
}