{
  "contractName": "ForTubeBankService",
  "abi": [
    {
      "inputs": [],
      "stateMutability": "nonpayable",
      "type": "constructor"
    },
    {
      "inputs": [
        {
          "internalType": "address",
          "name": "account",
          "type": "address"
        }
      ],
      "name": "TransferOwnership",
      "outputs": [],
      "stateMutability": "nonpayable",
      "type": "function"
    },
    {
      "inputs": [
        {
          "internalType": "address",
          "name": "adapterAddress",
          "type": "address"
        }
      ],
      "name": "UpdateAdapter",
      "outputs": [],
      "stateMutability": "nonpayable",
      "type": "function"
    },
    {
      "inputs": [
        {
          "internalType": "uint256",
          "name": "amount",
          "type": "uint256"
        }
      ],
      "name": "Save",
      "outputs": [],
      "stateMutability": "nonpayable",
      "type": "function"
    },
    {
      "inputs": [
        {
          "internalType": "uint256",
          "name": "amount",
          "type": "uint256"
        }
      ],
      "name": "Withdraw",
      "outputs": [],
      "stateMutability": "nonpayable",
      "type": "function"
    },
    {
      "inputs": [
        {
          "internalType": "uint256",
          "name": "amount",
          "type": "uint256"
        },
        {
          "internalType": "uint256",
          "name": "sharesAmount",
          "type": "uint256"
        }
      ],
      "name": "WithdrawByShares",
      "outputs": [],
      "stateMutability": "nonpayable",
      "type": "function"
    },
    {
      "inputs": [
        {
          "internalType": "uint256",
          "name": "sharesAmount",
          "type": "uint256"
        }
      ],
      "name": "WithdrawBySharesOnly",
      "outputs": [],
      "stateMutability": "nonpayable",
      "type": "function"
    },
    {
      "inputs": [],
      "name": "GetForTubeBankAdapterAddress",
      "outputs": [
        {
          "internalType": "address",
          "name": "",
          "type": "address"
        }
      ],
      "stateMutability": "view",
      "type": "function"
    },
    {
      "inputs": [],
      "name": "GetPricePerFullShare",
      "outputs": [
        {
          "internalType": "uint256",
          "name": "",
          "type": "uint256"
        }
      ],
      "stateMutability": "view",
      "type": "function"
    }
  ],
  "bytecode": "0x608060405234801561001057600080fd5b5060008054600160a060020a031916331790556105d0806100326000396000f3fe608060405234801561001057600080fd5b50600436106100a5576000357c0100000000000000000000000000000000000000000000000000000000900480637057f929116100785780637057f92914610130578063ad73761314610153578063cfaaa26614610170578063df3b642d14610196576100a5565b806323caec69146100aa5780635b6b431d146100d25780635e4ecfe6146100ef5780636583d12a14610113575b600080fd5b6100d0600480360360208110156100c057600080fd5b5035600160a060020a03166101b0565b005b6100d0600480360360208110156100e857600080fd5b5035610258565b6100f76102df565b60408051600160a060020a039092168252519081900360200190f35b6100d06004803603602081101561012957600080fd5b50356102ee565b6100d06004803603604081101561014657600080fd5b508035906020013561035a565b6100d06004803603602081101561016957600080fd5b50356103e9565b6100d06004803603602081101561018657600080fd5b5035600160a060020a0316610455565b61019e61050b565b60408051918252519081900360200190f35b600054600160a060020a0316331461022957604080517f08c379a000000000000000000000000000000000000000000000000000000000815260206004820152601d60248201527f4f6e6c79206f776e65722063616e206d616b6520746869732063616c6c000000604482015290519081900360640190fd5b6002805473ffffffffffffffffffffffffffffffffffffffff1916600160a060020a0392909216919091179055565b600254604080517f8353ffca000000000000000000000000000000000000000000000000000000008152600481018490523360248201529051600160a060020a0390921691638353ffca9160448082019260009290919082900301818387803b1580156102c457600080fd5b505af11580156102d8573d6000803e3d6000fd5b5050505050565b600254600160a060020a031690565b600254604080517fef1dff55000000000000000000000000000000000000000000000000000000008152336004820152602481018490529051600160a060020a039092169163ef1dff559160448082019260009290919082900301818387803b1580156102c457600080fd5b600254604080517fdfba295400000000000000000000000000000000000000000000000000000000815260048101859052336024820152604481018490529051600160a060020a039092169163dfba29549160648082019260009290919082900301818387803b1580156103cd57600080fd5b505af11580156103e1573d6000803e3d6000fd5b505050505050565b600254604080517f330e35c9000000000000000000000000000000000000000000000000000000008152600481018490523360248201529051600160a060020a039092169163330e35c99160448082019260009290919082900301818387803b1580156102c457600080fd5b600054600160a060020a031633146104ce57604080517f08c379a000000000000000000000000000000000000000000000000000000000815260206004820152601d60248201527f4f6e6c79206f776e65722063616e206d616b6520746869732063616c6c000000604482015290519081900360640190fd5b600054600160a060020a031615610508576000805473ffffffffffffffffffffffffffffffffffffffff1916600160a060020a0383161790555b50565b600254604080517fdf3b642d0000000000000000000000000000000000000000000000000000000081529051600092600160a060020a03169163df3b642d916004808301926020929190829003018186803b15801561056957600080fd5b505afa15801561057d573d6000803e3d6000fd5b505050506040513d602081101561059357600080fd5b505190509056fea2646970667358221220a07693505b0580bff72d39ea31a8a9a18f29c67effdf2af415335c0fc53d30fa64736f6c63430006060033",
  "immutableReferences": {},
  "source": "pragma solidity 0.6.6;\r\n\r\nimport \"./ForTubeBankAdapter.sol\";\r\n\r\ncontract ForTubeBankService {\r\n    address _owner;\r\n    address _delegateContract;\r\n\r\n    ForTubeBankAdapter _bankAdapter;\r\n\r\n    constructor() public {\r\n        _owner = msg.sender;\r\n    }\r\n\r\n    function TransferOwnership(address account) external onlyOwner() {\r\n        if (_owner != address(0)) _owner = account;\r\n    }\r\n\r\n    function UpdateAdapter(address adapterAddress) external onlyOwner() {\r\n        _bankAdapter = ForTubeBankAdapter(adapterAddress);\r\n    }\r\n\r\n    /*\r\n        account: this is the owner of the DUSD token\r\n    */\r\n    /*\r\n        -   Before calling this function, ensure that the msg.sender or caller has given this contract address\r\n            approval to transfer money on its behalf to another address\r\n    */\r\n    function Save(uint256 amount) external {\r\n        _bankAdapter.Save(amount, msg.sender);\r\n    }\r\n\r\n    function Withdraw(uint256 amount) external {\r\n        _bankAdapter.Withdraw(amount, msg.sender);\r\n    }\r\n\r\n    function WithdrawByShares(uint256 amount, uint256 sharesAmount) external {\r\n        _bankAdapter.WithdrawByShares(amount, msg.sender, sharesAmount);\r\n    }\r\n\r\n    function WithdrawBySharesOnly(uint256 sharesAmount) external {\r\n        _bankAdapter.WithdrawBySharesOnly(msg.sender, sharesAmount);\r\n    }\r\n\r\n    function GetForTubeBankAdapterAddress() external view returns (address) {\r\n        return address(_bankAdapter);\r\n    }\r\n    function GetPricePerFullShare() external view returns (uint256){\r\n        \r\n        return _bankAdapter.GetPricePerFullShare();\r\n    }\r\n    \r\n    modifier onlyOwner() {\r\n        require(_owner == msg.sender, \"Only owner can make this call\");\r\n        _;\r\n    }\r\n}\r\n",
  "sourcePath": "C:/Users/MKOPA/Documents/WORK/UGARSOFT/Fortube-Individual-Group-BSC/contracts/Fortube/ForTubeBankService.sol",
  "compiler": {
    "name": "solc",
    "version": "0.6.6+commit.6c089d02.Emscripten.clang"
  },
  "schemaVersion": "3.3.4",
  "updatedAt": "2021-03-30T20:55:27.556Z",
  "devdoc": {
    "methods": {}
  },
  "userdoc": {
    "methods": {}
  }
}