{
  "contractName": "Groups",
  "abi": [
    {
      "inputs": [
        {
          "internalType": "address",
          "name": "oracle",
          "type": "address"
        }
      ],
      "name": "activateStorageOracle",
      "outputs": [],
      "stateMutability": "nonpayable",
      "type": "function"
    },
    {
      "inputs": [
        {
          "internalType": "address",
          "name": "oracle",
          "type": "address"
        }
      ],
      "name": "deactivateStorageOracle",
      "outputs": [],
      "stateMutability": "nonpayable",
      "type": "function"
    },
    {
      "inputs": [
        {
          "internalType": "address",
          "name": "newOracle",
          "type": "address"
        }
      ],
      "name": "reAssignStorageOracle",
      "outputs": [],
      "stateMutability": "nonpayable",
      "type": "function"
    },
    {
      "inputs": [
        {
          "internalType": "address payable",
          "name": "newOwner",
          "type": "address"
        }
      ],
      "name": "transferOwnership",
      "outputs": [],
      "stateMutability": "nonpayable",
      "type": "function"
    },
    {
      "inputs": [],
      "name": "getLengthOfTokenAddressesUsedInDeposit",
      "outputs": [
        {
          "internalType": "uint256",
          "name": "",
          "type": "uint256"
        }
      ],
      "stateMutability": "view",
      "type": "function"
    },
    {
      "inputs": [
        {
          "internalType": "address payable",
          "name": "receiverAddress",
          "type": "address"
        }
      ],
      "name": "getXendTokensReward",
      "outputs": [
        {
          "internalType": "uint256",
          "name": "",
          "type": "uint256"
        }
      ],
      "stateMutability": "view",
      "type": "function"
    },
    {
      "inputs": [
        {
          "internalType": "address payable",
          "name": "receiverAddress",
          "type": "address"
        },
        {
          "internalType": "uint256",
          "name": "amount",
          "type": "uint256"
        }
      ],
      "name": "setXendTokensReward",
      "outputs": [],
      "stateMutability": "nonpayable",
      "type": "function"
    },
    {
      "inputs": [
        {
          "internalType": "address",
          "name": "tokenAddress",
          "type": "address"
        },
        {
          "internalType": "uint256",
          "name": "amount",
          "type": "uint256"
        }
      ],
      "name": "incrementTokenDeposit",
      "outputs": [
        {
          "internalType": "uint256",
          "name": "",
          "type": "uint256"
        }
      ],
      "stateMutability": "nonpayable",
      "type": "function"
    },
    {
      "inputs": [
        {
          "internalType": "address",
          "name": "tokenAddress",
          "type": "address"
        },
        {
          "internalType": "uint256",
          "name": "amount",
          "type": "uint256"
        }
      ],
      "name": "decrementTokenDeposit",
      "outputs": [
        {
          "internalType": "uint256",
          "name": "",
          "type": "uint256"
        }
      ],
      "stateMutability": "nonpayable",
      "type": "function"
    },
    {
      "inputs": [
        {
          "internalType": "address",
          "name": "tokenAddress",
          "type": "address"
        }
      ],
      "name": "getTokenDeposit",
      "outputs": [
        {
          "internalType": "uint256",
          "name": "",
          "type": "uint256"
        }
      ],
      "stateMutability": "view",
      "type": "function"
    },
    {
      "inputs": [
        {
          "internalType": "uint256",
          "name": "amount",
          "type": "uint256"
        }
      ],
      "name": "incrementEtherDeposit",
      "outputs": [
        {
          "internalType": "uint256",
          "name": "",
          "type": "uint256"
        }
      ],
      "stateMutability": "nonpayable",
      "type": "function"
    },
    {
      "inputs": [
        {
          "internalType": "uint256",
          "name": "amount",
          "type": "uint256"
        }
      ],
      "name": "decrementEtherDeposit",
      "outputs": [
        {
          "internalType": "uint256",
          "name": "",
          "type": "uint256"
        }
      ],
      "stateMutability": "nonpayable",
      "type": "function"
    },
    {
      "inputs": [],
      "name": "getEtherDeposit",
      "outputs": [
        {
          "internalType": "uint256",
          "name": "",
          "type": "uint256"
        }
      ],
      "stateMutability": "view",
      "type": "function"
    },
    {
      "inputs": [
        {
          "internalType": "address payable",
          "name": "depositor",
          "type": "address"
        }
      ],
      "name": "createMember",
      "outputs": [],
      "stateMutability": "nonpayable",
      "type": "function"
    },
    {
      "inputs": [
        {
          "internalType": "address",
          "name": "_address",
          "type": "address"
        }
      ],
      "name": "getMember",
      "outputs": [
        {
          "internalType": "address",
          "name": "",
          "type": "address"
        }
      ],
      "stateMutability": "view",
      "type": "function"
    },
    {
      "inputs": [],
      "name": "getGroup",
      "outputs": [
        {
          "components": [
            {
              "internalType": "bool",
              "name": "exists",
              "type": "bool"
            },
            {
              "internalType": "uint256",
              "name": "id",
              "type": "uint256"
            },
            {
              "internalType": "string",
              "name": "name",
              "type": "string"
            },
            {
              "internalType": "string",
              "name": "symbol",
              "type": "string"
            },
            {
              "internalType": "address payable",
              "name": "creatorAddress",
              "type": "address"
            }
          ],
          "internalType": "struct IGroupSchema.Group[]",
          "name": "",
          "type": "tuple[]"
        }
      ],
      "stateMutability": "view",
      "type": "function"
    },
    {
      "inputs": [
        {
          "internalType": "string",
          "name": "name",
          "type": "string"
        },
        {
          "internalType": "string",
          "name": "symbol",
          "type": "string"
        },
        {
          "internalType": "address",
          "name": "groupCreator",
          "type": "address"
        }
      ],
      "name": "createGroup",
      "outputs": [
        {
          "internalType": "uint256",
          "name": "",
          "type": "uint256"
        }
      ],
      "stateMutability": "nonpayable",
      "type": "function"
    },
    {
      "inputs": [
        {
          "internalType": "uint256",
          "name": "id",
          "type": "uint256"
        },
        {
          "internalType": "string",
          "name": "name",
          "type": "string"
        },
        {
          "internalType": "string",
          "name": "symbol",
          "type": "string"
        },
        {
          "internalType": "address payable",
          "name": "creatorAddress",
          "type": "address"
        }
      ],
      "name": "updateGroup",
      "outputs": [],
      "stateMutability": "nonpayable",
      "type": "function"
    },
    {
      "inputs": [
        {
          "internalType": "string",
          "name": "groupName",
          "type": "string"
        }
      ],
      "name": "doesGroupExist",
      "outputs": [
        {
          "internalType": "bool",
          "name": "",
          "type": "bool"
        }
      ],
      "stateMutability": "view",
      "type": "function"
    },
    {
      "inputs": [
        {
          "internalType": "uint256",
          "name": "groupId",
          "type": "uint256"
        }
      ],
      "name": "doesGroupExist",
      "outputs": [
        {
          "internalType": "bool",
          "name": "",
          "type": "bool"
        }
      ],
      "stateMutability": "view",
      "type": "function"
    },
    {
      "inputs": [
        {
          "internalType": "address",
          "name": "depositor",
          "type": "address"
        }
      ],
      "name": "doesMemberExist",
      "outputs": [
        {
          "internalType": "bool",
          "name": "",
          "type": "bool"
        }
      ],
      "stateMutability": "view",
      "type": "function"
    },
    {
      "inputs": [
        {
          "internalType": "uint256",
          "name": "groupId",
          "type": "uint256"
        },
        {
          "internalType": "address payable",
          "name": "depositor",
          "type": "address"
        }
      ],
      "name": "createGroupMember",
      "outputs": [],
      "stateMutability": "nonpayable",
      "type": "function"
    },
    {
      "inputs": [
        {
          "internalType": "uint256",
          "name": "index",
          "type": "uint256"
        }
      ],
      "name": "getGroupMember",
      "outputs": [
        {
          "internalType": "address payable",
          "name": "_address",
          "type": "address"
        },
        {
          "internalType": "uint256",
          "name": "groupId",
          "type": "uint256"
        }
      ],
      "stateMutability": "view",
      "type": "function"
    },
    {
      "inputs": [
        {
          "internalType": "uint256",
          "name": "groupId",
          "type": "uint256"
        },
        {
          "internalType": "address",
          "name": "depositor",
          "type": "address"
        }
      ],
      "name": "getGroupMembersDeepIndexer",
      "outputs": [
        {
          "internalType": "bool",
          "name": "exists",
          "type": "bool"
        },
        {
          "internalType": "uint256",
          "name": "index",
          "type": "uint256"
        }
      ],
      "stateMutability": "view",
      "type": "function"
    },
    {
      "inputs": [
        {
          "internalType": "uint256",
          "name": "groupId",
          "type": "uint256"
        }
      ],
      "name": "getRecordIndexLengthForGroupMembersIndexer",
      "outputs": [
        {
          "internalType": "uint256",
          "name": "",
          "type": "uint256"
        }
      ],
      "stateMutability": "view",
      "type": "function"
    },
    {
      "inputs": [
        {
          "internalType": "address",
          "name": "depositor",
          "type": "address"
        }
      ],
      "name": "getRecordIndexLengthForGroupMembersIndexerByDepositor",
      "outputs": [
        {
          "internalType": "uint256",
          "name": "",
          "type": "uint256"
        }
      ],
      "stateMutability": "view",
      "type": "function"
    },
    {
      "inputs": [
        {
          "internalType": "uint256",
          "name": "groupId",
          "type": "uint256"
        },
        {
          "internalType": "uint256",
          "name": "indexerLocation",
          "type": "uint256"
        }
      ],
      "name": "getGroupMembersIndexer",
      "outputs": [
        {
          "internalType": "bool",
          "name": "exist",
          "type": "bool"
        },
        {
          "internalType": "uint256",
          "name": "index",
          "type": "uint256"
        }
      ],
      "stateMutability": "view",
      "type": "function"
    },
    {
      "inputs": [
        {
          "internalType": "address",
          "name": "depositor",
          "type": "address"
        },
        {
          "internalType": "uint256",
          "name": "indexerLocation",
          "type": "uint256"
        }
      ],
      "name": "getGroupMembersIndexerByDepositor",
      "outputs": [
        {
          "internalType": "bool",
          "name": "exist",
          "type": "bool"
        },
        {
          "internalType": "uint256",
          "name": "index",
          "type": "uint256"
        }
      ],
      "stateMutability": "view",
      "type": "function"
    },
    {
      "inputs": [
        {
          "internalType": "uint256",
          "name": "groupId",
          "type": "uint256"
        },
        {
          "internalType": "address",
          "name": "depositor",
          "type": "address"
        }
      ],
      "name": "doesGroupMemberExist",
      "outputs": [
        {
          "internalType": "bool",
          "name": "",
          "type": "bool"
        }
      ],
      "stateMutability": "view",
      "type": "function"
    },
    {
      "inputs": [
        {
          "internalType": "uint256",
          "name": "groupId",
          "type": "uint256"
        }
      ],
      "name": "getGroupIndexer",
      "outputs": [
        {
          "internalType": "bool",
          "name": "exist",
          "type": "bool"
        },
        {
          "internalType": "uint256",
          "name": "index",
          "type": "uint256"
        }
      ],
      "stateMutability": "view",
      "type": "function"
    },
    {
      "inputs": [
        {
          "internalType": "address",
          "name": "groupCreator",
          "type": "address"
        }
      ],
      "name": "getRecordIndexLengthForCreator",
      "outputs": [
        {
          "internalType": "uint256",
          "name": "",
          "type": "uint256"
        }
      ],
      "stateMutability": "view",
      "type": "function"
    },
    {
      "inputs": [
        {
          "internalType": "address",
          "name": "groupCreator",
          "type": "address"
        },
        {
          "internalType": "uint256",
          "name": "indexerLocation",
          "type": "uint256"
        }
      ],
      "name": "getGroupForCreatorIndexer",
      "outputs": [
        {
          "internalType": "bool",
          "name": "exist",
          "type": "bool"
        },
        {
          "internalType": "uint256",
          "name": "index",
          "type": "uint256"
        }
      ],
      "stateMutability": "view",
      "type": "function"
    },
    {
      "inputs": [
        {
          "internalType": "string",
          "name": "groupName",
          "type": "string"
        }
      ],
      "name": "getGroupIndexerByName",
      "outputs": [
        {
          "internalType": "bool",
          "name": "exist",
          "type": "bool"
        },
        {
          "internalType": "uint256",
          "name": "index",
          "type": "uint256"
        }
      ],
      "stateMutability": "view",
      "type": "function"
    },
    {
      "inputs": [
        {
          "internalType": "uint256",
          "name": "groupId",
          "type": "uint256"
        }
      ],
      "name": "getGroupById",
      "outputs": [
        {
          "internalType": "uint256",
          "name": "",
          "type": "uint256"
        },
        {
          "internalType": "string",
          "name": "",
          "type": "string"
        },
        {
          "internalType": "string",
          "name": "",
          "type": "string"
        },
        {
          "internalType": "address payable",
          "name": "",
          "type": "address"
        }
      ],
      "stateMutability": "view",
      "type": "function"
    },
    {
      "inputs": [
        {
          "internalType": "uint256",
          "name": "index",
          "type": "uint256"
        }
      ],
      "name": "getGroupByIndex",
      "outputs": [
        {
          "internalType": "uint256",
          "name": "",
          "type": "uint256"
        },
        {
          "internalType": "string",
          "name": "",
          "type": "string"
        },
        {
          "internalType": "string",
          "name": "",
          "type": "string"
        },
        {
          "internalType": "address payable",
          "name": "",
          "type": "address"
        }
      ],
      "stateMutability": "view",
      "type": "function"
    },
    {
      "inputs": [],
      "name": "getGroupsLength",
      "outputs": [
        {
          "internalType": "uint256",
          "name": "length",
          "type": "uint256"
        }
      ],
      "stateMutability": "view",
      "type": "function"
    },
    {
      "inputs": [
        {
          "internalType": "uint256",
          "name": "groupId",
          "type": "uint256"
        }
      ],
      "name": "getGroupIndex",
      "outputs": [
        {
          "internalType": "uint256",
          "name": "",
          "type": "uint256"
        }
      ],
      "stateMutability": "view",
      "type": "function"
    }
  ],
  "bytecode": "0x608060405260008054600160a060020a031916331790556120ea806100256000396000f3fe608060405234801561001057600080fd5b5060043610610244576000357c01000000000000000000000000000000000000000000000000000000009004806352bc00c41161014d5780638c224826116100d5578063d73c9de411610099578063d73c9de4146104da578063daf0cf43146104fb578063e5705a681461050e578063e824f2b514610521578063f2fde38b1461053457610244565b80638c224826146104865780638edb1a06146104995780639a259798146104ac578063c12c8ac2146104bf578063d1f44278146104d257610244565b80636cc29ea01161011c5780636cc29ea01461043d5780636d3524f5146104505780636f583ba61461045857806380abc21a1461046b57806381ea68fe1461047357610244565b806352bc00c4146103f15780635e82c389146104045780636041fc88146104175780636b2c46d51461042a57610244565b80632e367f9f116101d05780634448d5e11161019f5780634448d5e114610390578063458a8c07146103a357806348c88923146103b657806348cf9e5c146103c95780634b79c074146103dc57610244565b80632e367f9f146103345780633037faf1146103475780633525e9c41461036a5780633ac179f81461037d57610244565b80630fdf80ed116102175780630fdf80ed146102bb578063165301a5146102ce5780632124d529146102e15780632ada2596146102f45780632bd10bbc1461031457610244565b806308099b5d1461024957806309080945146102735780630c202741146102865780630d15c07d1461029b575b600080fd5b61025c610257366004611b0b565b610547565b60405161026a929190611dfd565b60405180910390f35b61025c610281366004611be4565b61059d565b610299610294366004611be4565b6105f4565b005b6102ae6102a9366004611be4565b6107da565b60405161026a9190611df2565b6102996102c9366004611ab2565b6107ed565b6102ae6102dc366004611ab2565b610859565b6102996102ef366004611ab2565b61086c565b610307610302366004611ab2565b6109ad565b60405161026a9190611d15565b610327610322366004611bcc565b610a0b565b60405161026a9190612020565b610327610342366004611af9565b610a74565b61035a610355366004611bcc565b610b0d565b60405161026a9493929190612029565b610327610378366004611ab2565b610b2c565b61032761038b366004611bcc565b610b47565b61025c61039e366004611af9565b610b59565b6102ae6103b1366004611b0b565b610bc7565b61025c6103c4366004611bcc565b610c08565b6103276103d7366004611bcc565b610c4a565b6103e4610c55565b60405161026a9190611d42565b6103276103ff366004611bcc565b610e09565b610299610412366004611c13565b610e4d565b610299610425366004611ab2565b610f36565b6102ae610438366004611bcc565b610f84565b61035a61044b366004611bcc565b610f8f565b610327611121565b610299610466366004611ab2565b611127565b61032761117b565b610327610481366004611ab2565b611181565b610327610494366004611af9565b61119c565b6103276104a7366004611ab2565b61126e565b6103276104ba366004611b4b565b611289565b6103276104cd366004611ab2565b6115b4565b6103276115cf565b6104ed6104e8366004611bcc565b6115d5565b60405161026a929190611d29565b61025c610509366004611c9c565b61163d565b61029961051c366004611ace565b611662565b61025c61052f366004611af9565b6116ab565b610299610542366004611ab2565b6116da565b6000806105526118fb565b60058585604051610564929190611ce9565b9081526040805160209281900383018120818301909252815460ff161515808252600190920154920182905293509150505b9250929050565b6000806105a86118fb565b5050506000918252600a60209081526040808420600160a060020a03939093168452918152918190208151808301909252805460ff161515808352600190910154919092018190529091565b3360009081526001602052604090205460ff16806106305760405160e560020a62461bcd02815260040161062790611e0d565b60405180910390fd5b600061063c8484611742565b9050801561065f5760405160e560020a62461bcd02815260040161062790611eb0565b6106676118fb565b5060408051808201909152600181526007546020820152610686611912565b50604080516060810182526001808252600160a060020a0396871660208084018281528486018b815260008c815260088452878120805480880182559082528482208a516002928302909101805491151560ff199283161781558b87018051918a0191909155878452600987528a84208054808b0182559085528785208d519185020180549115159184169190911781558151908a01559e8352600a865289832096835295909452968720975188549015159085161788559a5196840196909655600780549384018155909452915192027fa66cc928b5edb82af9bd49922954155ab7b0942694bea4ce44661d9a8736c6888101805494519097166101000274ffffffffffffffffffffffffffffffffffffffff001993151594909216939093179190911617909355505090517fa66cc928b5edb82af9bd49922954155ab7b0942694bea4ce44661d9a8736c68990910155565b60006107e68383611742565b9392505050565b3360009081526001602052604090205460ff16806108205760405160e560020a62461bcd02815260040161062790611e0d565b50336000908152600160208190526040808320805460ff19908116909155600160a060020a039490941683529091208054909216179055565b60006108648261176d565b90505b919050565b3360009081526001602052604090205460ff168061089f5760405160e560020a62461bcd02815260040161062790611e0d565b6108a76118fb565b506040805180820190915260018152600160a060020a038316602082015260006108d08461176d565b905080156108f35760405160e560020a62461bcd02815260040161062790611fb2565b6108fb6118fb565b50506040805180820182526001808252600b805460208085018281528285018455600093845287517f0175b7a638427703f0dbe7bb9bbf987a2551717b34e79f33b5b1008d1fa01db990930180549883015160ff19998a169415159490941774ffffffffffffffffffffffffffffffffffffffff001916610100600160a060020a0395861602179055989091168252600c90529290922090518154909316921515929092178255925192019190915550565b6000806109b9836117a3565b90506109c36118fb565b600b82815481106109d057fe5b60009182526020918290206040805180820190915291015460ff8116151582526101009004600160a060020a03169101819052949350505050565b3360009081526001602052604081205460ff1680610a3e5760405160e560020a62461bcd02815260040161062790611e0d565b82600f541015610a635760405160e560020a62461bcd02815260040161062790611f1e565b5050600f8054919091039081905590565b3360009081526001602052604081205460ff1680610aa75760405160e560020a62461bcd02815260040161062790611e0d565b600160a060020a03841660009081526010602052604090205483811015610ae35760405160e560020a62461bcd02815260040161062790611f1e565b505050600160a060020a039190911660009081526010602052604090208054919091039081905590565b60006060806000610b1d85611804565b93509350935093509193509193565b600160a060020a031660009081526004602052604090205490565b60009081526008602052604090205490565b600080610b646118fb565b600160a060020a0385166000908152600460205260409020805485908110610b8857fe5b600091825260209182902060408051808201909152600290920201805460ff161515808352600190910154919092018190529093509150509250929050565b60006107e683838080601f01602080910402602001604051908101604052809392919081815260200183838082843760009201919091525061184292505050565b600080610c136118fb565b5050506000908152600360209081526040918290208251808401909352805460ff1615158084526001909101549290910182905291565b600061086482611870565b60606002805480602002602001604051908101604052809291908181526020016000905b82821015610dff5760008481526020908190206040805160a08101825260058602909201805460ff1615158352600180820154848601526002808301805485516101009482161594909402600019011691909104601f8101879004870283018701855280835294959294938601939192909190830182828015610d3d5780601f10610d1257610100808354040283529160200191610d3d565b820191906000526020600020905b815481529060010190602001808311610d2057829003601f168201915b505050918352505060038201805460408051602060026001851615610100026000190190941693909304601f8101849004840282018401909252818152938201939291830182828015610dd15780601f10610da657610100808354040283529160200191610dd1565b820191906000526020600020905b815481529060010190602001808311610db457829003601f168201915b505050918352505060049190910154600160a060020a03166020918201529082526001929092019101610c79565b5050505090505b90565b3360009081526001602052604081205460ff1680610e3c5760405160e560020a62461bcd02815260040161062790611e0d565b5050600f8054919091019081905590565b3360009081526001602052604090205460ff1680610e805760405160e560020a62461bcd02815260040161062790611e0d565b6000610e8b88611870565b9050868660028381548110610e9c57fe5b90600052602060002090600502016002019190610eba929190611932565b50848460028381548110610eca57fe5b90600052602060002090600502016003019190610ee8929190611932565b508260028281548110610ef757fe5b906000526020600020906005020160040160006101000a815481600160a060020a030219169083600160a060020a031602179055505050505050505050565b600054600160a060020a03163314610f635760405160e560020a62461bcd02815260040161062790611e0d565b600160a060020a03166000908152600160205260409020805460ff19169055565b6000610864826118be565b6000606080600080610fa086611870565b9050600060028281548110610fb157fe5b90600052602060002090600502019050806001015481600201826003018360040160009054906101000a9004600160a060020a0316828054600181600116156101000203166002900480601f01602080910402602001604051908101604052809291908181526020018280546001816001161561010002031660029004801561107b5780601f106110505761010080835404028352916020019161107b565b820191906000526020600020905b81548152906001019060200180831161105e57829003601f168201915b5050855460408051602060026001851615610100026000190190941693909304601f8101849004840282018401909252818152959850879450925084019050828280156111095780601f106110de57610100808354040283529160200191611109565b820191906000526020600020905b8154815290600101906020018083116110ec57829003601f168201915b50505050509150955095509550955050509193509193565b60025490565b600054600160a060020a031633146111545760405160e560020a62461bcd02815260040161062790611e0d565b600160a060020a03166000908152600160208190526040909120805460ff19169091179055565b600e5490565b600160a060020a031660009081526009602052604090205490565b3360009081526001602052604081205460ff16806111cf5760405160e560020a62461bcd02815260040161062790611e0d565b600160a060020a03841660009081526010602052604090205461124557600e80546001810182556000919091527fbb7b4a454dc3493923482f07822329ed19e8244eff582cc204f8554c3620c3fd01805473ffffffffffffffffffffffffffffffffffffffff1916600160a060020a0386161790555b600160a060020a0384166000908152601060205260409020805484019081905591505092915050565b600160a060020a031660009081526010602052604090205490565b3360009081526001602052604081205460ff16806112bc5760405160e560020a62461bcd02815260040161062790611e0d565b60006112fd88888080601f01602080910402602001604051908101604052809392919081815260200183838082843760009201919091525061184292505050565b905080156113205760405160e560020a62461bcd02815260040161062790611e7b565b600d805460010190556113316119b0565b6040518060a00160405280600115158152602001600d5481526020018a8a8080601f016020809104026020016040519081016040528093929190818152602001838380828437600092019190915250505090825250604080516020601f8b0181900481028201810190925289815291810191908a908a9081908401838280828437600092019190915250505090825250600160a060020a0387166020909101526002549091506113df6118fb565b506040805180820182526001808252602080830185905260028054928301815560005285517f405787fa12a823e0f2b7631cc41b3ba8828b3321ca811111fa75cd3aa3bb5ace6005909302928301805460ff1916911515919091178155868201517f405787fa12a823e0f2b7631cc41b3ba8828b3321ca811111fa75cd3aa3bb5acf8401559386015180519394879490936114a0937f405787fa12a823e0f2b7631cc41b3ba8828b3321ca811111fa75cd3aa3bb5ad09091019201906119ea565b50606082015180516114bc9160038401916020909101906119ea565b50608091909101516004909101805473ffffffffffffffffffffffffffffffffffffffff1916600160a060020a03909216919091179055600d546000908152600360209081526040918290208351815460ff19169015151781559083015160019190910155518190600590611534908e908e90611ce9565b908152604080519182900360209081019092208351815490151560ff1991821617825593830151600191820155600160a060020a038b16600090815260048452918220805480830182559083529183902085516002909302018054921515929094169190911783559201519101555050600d549250505095945050505050565b600160a060020a031660009081526006602052604090205490565b600f5490565b6000806115e0611912565b600784815481106115ed57fe5b6000918252602091829020604080516060810182526002909302909101805460ff811615158452600160a060020a0361010090910416938301849052600101549101819052909350915050915091565b6000806116486118fb565b6000858152600860205260409020805485908110610b8857fe5b600160a060020a03821660009081526006602052604090205461168b908263ffffffff6118d316565b600160a060020a0390921660009081526006602052604090209190915550565b6000806116b66118fb565b600160a060020a0385166000908152600960205260409020805485908110610b8857fe5b600054600160a060020a031633146117075760405160e560020a62461bcd02815260040161062790611e0d565b600160a060020a0381161561173f576000805473ffffffffffffffffffffffffffffffffffffffff1916600160a060020a0383161790555b50565b6000918252600a60209081526040808420600160a060020a0393909316845291905290205460ff1690565b600160a060020a0381166000908152600c602052604081205460ff168015611799576001915050610867565b6000915050610867565b600160a060020a0381166000908152600c602052604081205460ff168015156001146117e45760405160e560020a62461bcd02815260040161062790611fe9565b5050600160a060020a03166000908152600c602052604090206001015490565b600254600090606090819083908581116118335760405160e560020a62461bcd02815260040161062790611f7b565b600060028781548110610fb157fe5b6000806005836040516118559190611cf9565b9081526040519081900360200190205460ff16915050919050565b60008181526003602052604081205460ff168015156001146118a75760405160e560020a62461bcd02815260040161062790611ee7565b505060009081526003602052604090206001015490565b60009081526003602052604090205460ff1690565b6000828201838110156107e65760405160e560020a62461bcd02815260040161062790611e44565b604080518082019091526000808252602082015290565b604080516060810182526000808252602082018190529181019190915290565b828054600181600116156101000203166002900490600052602060002090601f016020900481019282601f106119735782800160ff198235161785556119a0565b828001600101855582156119a0579182015b828111156119a0578235825591602001919060010190611985565b506119ac929150611a58565b5090565b6040518060a001604052806000151581526020016000815260200160608152602001606081526020016000600160a060020a031681525090565b828054600181600116156101000203166002900490600052602060002090601f016020900481019282601f10611a2b57805160ff19168380011785556119a0565b828001600101855582156119a0579182015b828111156119a0578251825591602001919060010190611a3d565b610e0691905b808211156119ac5760008155600101611a5e565b60008083601f840112611a83578182fd5b50813567ffffffffffffffff811115611a9a578182fd5b60208301915083602082850101111561059657600080fd5b600060208284031215611ac3578081fd5b81356107e68161209f565b60008060408385031215611ae0578081fd5b8235611aeb8161209f565b946020939093013593505050565b60008060408385031215611ae0578182fd5b60008060208385031215611b1d578182fd5b823567ffffffffffffffff811115611b33578283fd5b611b3f85828601611a72565b90969095509350505050565b600080600080600060608688031215611b62578081fd5b853567ffffffffffffffff80821115611b79578283fd5b611b8589838a01611a72565b90975095506020880135915080821115611b9d578283fd5b50611baa88828901611a72565b9094509250506040860135611bbe8161209f565b809150509295509295909350565b600060208284031215611bdd578081fd5b5035919050565b60008060408385031215611bf6578182fd5b823591506020830135611c088161209f565b809150509250929050565b60008060008060008060808789031215611c2b578081fd5b86359550602087013567ffffffffffffffff80821115611c49578283fd5b611c558a838b01611a72565b90975095506040890135915080821115611c6d578283fd5b50611c7a89828a01611a72565b9094509250506060870135611c8e8161209f565b809150509295509295509295565b60008060408385031215611cae578182fd5b50508035926020909101359150565b60008151808452611cd581602086016020860161206f565b601f01601f19169290920160200192915050565b6000828483379101908152919050565b60008251611d0b81846020870161206f565b9190910192915050565b600160a060020a0391909116815260200190565b600160a060020a03929092168252602082015260400190565b60208082528251828201819052600091906040908185019080840286018301878501865b83811015611de457603f19898403018552815160a08151151585528882015189860152878201518189870152611d9e82870182611cbd565b6060925082840151915086810383880152611db98183611cbd565b608094850151600160a060020a03169790940196909652505094870194925090860190600101611d66565b509098975050505050505050565b901515815260200190565b9115158252602082015260400190565b6020808252601f908201527f756e617574686f72697a65642061636365737320746f20636f6e747261637400604082015260600190565b6020808252601b908201527f536166654d6174683a206164646974696f6e206f766572666c6f770000000000604082015260600190565b6020808252818101527f47726f7570206e616d652068617320616c7265616479206265656e2075736564604082015260600190565b60208082526013908201527f47726f7570206d656d6265722065786973747300000000000000000000000000604082015260600190565b6020808252600f908201527f47726f7570206e6f7420666f756e640000000000000000000000000000000000604082015260600190565b60208082526028908201527f6465706f7369742062616c616e6365206f7665726472616674206973206e6f7460408201527f20616c6c6f776564000000000000000000000000000000000000000000000000606082015260800190565b6020808252600c908201527f4f7574206f662072616e67650000000000000000000000000000000000000000604082015260600190565b60208082526015908201527f4d656d62657220616c7265616479206578697374730000000000000000000000604082015260600190565b60208082526010908201527f4d656d626572206e6f7420666f756e6400000000000000000000000000000000604082015260600190565b90815260200190565b6000858252608060208301526120426080830186611cbd565b82810360408401526120548186611cbd565b915050600160a060020a038316606083015295945050505050565b60005b8381101561208a578181015183820152602001612072565b83811115612099576000848401525b50505050565b600160a060020a038116811461173f57600080fdfea2646970667358221220b76d1ed9dba6078ff228e3eb1e7c3cef48d4b0f5ee08e3285882e1599d3f14ed64736f6c63430006060033",
  "immutableReferences": {},
  "source": "pragma solidity ^0.6.0;\r\n\r\nimport \"./IGroupSchema.sol\";\r\nimport \"./StorageOwners.sol\";\r\nimport \"./SafeMath.sol\";\r\npragma experimental ABIEncoderV2;\r\n\r\ncontract Groups is IGroupSchema, StorageOwners {\r\n    \r\n    using SafeMath for uint256;\r\n    // list of group records\r\n    Group[] private Groups;\r\n    //Mapping that enables ease of traversal of the group records\r\n    mapping(uint256 => RecordIndex) private GroupIndexer;\r\n\r\n    // Mapping that enables ease of traversal of groups created by an addressor\r\n    mapping(address => RecordIndex[]) private GroupForCreatorIndexer;\r\n\r\n    // indexes a group location using the group name\r\n    mapping(string => RecordIndex) private GroupIndexerByName;\r\n    \r\n    mapping(address => uint256) private XendTokensReward;\r\n\r\n\r\n    GroupMember[] GroupMembers;\r\n\r\n    //Mapping of a groups members. Key is the group id,\r\n    mapping(uint256 => RecordIndex[]) private GroupMembersIndexer;\r\n\r\n    mapping(address => RecordIndex[]) private GroupMembersIndexerByDepositor;\r\n    mapping(uint256 => mapping(address => RecordIndex))\r\n        private GroupMembersDeepIndexer;\r\n\r\n    // list of group records\r\n    Member[] private Members;\r\n\r\n    //Mapping that enables ease of traversal of the member records. key is the member address\r\n    mapping(address => RecordIndex) private MemberIndexer;\r\n\r\n    uint256 lastGroupId;\r\n\r\n    address[] tokenAddresses;\r\n    uint256 totalEthersDeposited;\r\n    mapping(address => uint256) totalTokensDeposited;\r\n\r\n    function getLengthOfTokenAddressesUsedInDeposit()\r\n        external\r\n        view\r\n        returns (uint256)\r\n    {\r\n        return tokenAddresses.length;\r\n    }\r\n    \r\n    function getXendTokensReward(address payable receiverAddress)\r\n        external\r\n        view\r\n        returns (uint256)\r\n    {\r\n        return XendTokensReward[receiverAddress];\r\n    }\r\n\r\n   function setXendTokensReward(\r\n        address payable receiverAddress,\r\n        uint256 amount\r\n    ) external {\r\n        XendTokensReward[receiverAddress] = XendTokensReward[receiverAddress]\r\n            .add(amount);\r\n    }\r\n    function incrementTokenDeposit(address tokenAddress, uint256 amount)\r\n        external\r\n        onlyStorageOracle\r\n        returns (uint256)\r\n    {\r\n        if (totalTokensDeposited[tokenAddress] == 0) {\r\n            tokenAddresses.push(tokenAddress);\r\n        }\r\n        totalTokensDeposited[tokenAddress] += amount;\r\n        return totalTokensDeposited[tokenAddress];\r\n    }\r\n\r\n    function decrementTokenDeposit(address tokenAddress, uint256 amount)\r\n        external\r\n        onlyStorageOracle\r\n        returns (uint256)\r\n    {\r\n        uint256 currentAmount = totalTokensDeposited[tokenAddress];\r\n        require(\r\n            currentAmount >= amount,\r\n            \"deposit balance overdraft is not allowed\"\r\n        );\r\n        totalTokensDeposited[tokenAddress] -= amount;\r\n        return totalTokensDeposited[tokenAddress];\r\n    }\r\n\r\n    function getTokenDeposit(address tokenAddress)\r\n        external\r\n        view\r\n        returns (uint256)\r\n    {\r\n        return totalTokensDeposited[tokenAddress];\r\n    }\r\n\r\n    function incrementEtherDeposit(uint256 amount)\r\n        external\r\n        onlyStorageOracle\r\n        returns (uint256)\r\n    {\r\n        totalEthersDeposited += amount;\r\n        return totalEthersDeposited;\r\n    }\r\n\r\n    function decrementEtherDeposit(uint256 amount)\r\n        external\r\n        onlyStorageOracle\r\n        returns (uint256)\r\n    {\r\n        require(\r\n            totalEthersDeposited >= amount,\r\n            \"deposit balance overdraft is not allowed\"\r\n        );\r\n        totalEthersDeposited -= amount;\r\n        return totalEthersDeposited;\r\n    }\r\n\r\n    function getEtherDeposit() external view returns (uint256) {\r\n        return totalEthersDeposited;\r\n    }\r\n\r\n    function createMember(address payable depositor)\r\n        external\r\n        onlyStorageOracle\r\n    {\r\n        Member memory member = Member(true, depositor);\r\n\r\n        bool exist = _doesMemberExist(depositor);\r\n\r\n        require(exist == false, \"Member already exists\");\r\n\r\n        RecordIndex memory recordIndex = RecordIndex(true, Members.length);\r\n\r\n        Members.push(member);\r\n        MemberIndexer[depositor] = recordIndex;\r\n    }\r\n\r\n    function getMember(address _address) external view returns (address) {\r\n        uint256 index = _getMemberIndex(_address);\r\n        Member memory member = Members[index];\r\n\r\n        return (member._address);\r\n    }\r\n    \r\n    function getGroup() external view returns (Group [] memory) {\r\n        return Groups;\r\n    }\r\n\r\n    function _getMemberIndex(address _address) internal view returns (uint256) {\r\n        bool doesMemberExist = MemberIndexer[_address].exists;\r\n        require(doesMemberExist == true, \"Member not found\");\r\n\r\n        uint256 index = MemberIndexer[_address].index;\r\n        return index;\r\n    }\r\n\r\n    function createGroup(\r\n        string calldata name,\r\n        string calldata symbol,\r\n        address groupCreator\r\n    ) external onlyStorageOracle returns (uint256) {\r\n        bool exist = _doesGroupExist(name);\r\n        require(exist == false, \"Group name has already been used\");\r\n\r\n        lastGroupId += 1;\r\n        Group memory group = Group(\r\n            true,\r\n            lastGroupId,\r\n            name,\r\n            symbol,\r\n            payable(groupCreator)\r\n        );\r\n        uint256 index = Groups.length;\r\n        RecordIndex memory recordIndex = RecordIndex(true, index);\r\n        Groups.push(group);\r\n        GroupIndexer[lastGroupId] = recordIndex;\r\n        GroupIndexerByName[name] = recordIndex;\r\n        GroupForCreatorIndexer[groupCreator].push(recordIndex);\r\n\r\n        return lastGroupId;\r\n    }\r\n\r\n    function updateGroup(\r\n        uint256 id,\r\n        string calldata name,\r\n        string calldata symbol,\r\n        address payable creatorAddress\r\n    ) external onlyStorageOracle {\r\n        uint256 index = _getGroupIndex(id);\r\n        Groups[index].name = name;\r\n        Groups[index].symbol = symbol;\r\n        Groups[index].creatorAddress = creatorAddress;\r\n    }\r\n\r\n    function doesGroupExist(uint256 groupId) external view returns (bool) {\r\n        return _doesGroupExist(groupId);\r\n    }\r\n\r\n    function _doesGroupExist(uint256 groupId) internal view returns (bool) {\r\n        bool groupExist = GroupIndexer[groupId].exists;\r\n        return groupExist;\r\n    }\r\n\r\n    function doesGroupExist(string calldata groupName)\r\n        external\r\n        view\r\n        returns (bool)\r\n    {\r\n        return _doesGroupExist(groupName);\r\n    }\r\n\r\n    function _doesGroupExist(string memory groupName)\r\n        internal\r\n        view\r\n        returns (bool)\r\n    {\r\n        bool groupExist = GroupIndexerByName[groupName].exists;\r\n\r\n        return groupExist;\r\n    }\r\n\r\n    function doesMemberExist(address depositor) external view returns (bool) {\r\n        return _doesMemberExist(depositor);\r\n    }\r\n\r\n    function _doesMemberExist(address depositor) internal view returns (bool) {\r\n        bool exist = MemberIndexer[depositor].exists;\r\n\r\n        if (exist) return true;\r\n        else return false;\r\n    }\r\n\r\n    function createGroupMember(uint256 groupId, address payable depositor)\r\n        external\r\n        onlyStorageOracle\r\n    {\r\n        bool exist = _doesGroupMemberExist(groupId, depositor);\r\n        require(exist == false, \"Group member exists\");\r\n\r\n        RecordIndex memory recordIndex = RecordIndex(true, GroupMembers.length);\r\n\r\n        GroupMember memory groupMember = GroupMember(true, depositor, groupId);\r\n\r\n        GroupMembersIndexer[groupId].push(recordIndex);\r\n        GroupMembersIndexerByDepositor[depositor].push(recordIndex);\r\n        GroupMembersDeepIndexer[groupId][depositor] = recordIndex;\r\n        GroupMembers.push(groupMember);\r\n    }\r\n\r\n    function getGroupMember(uint256 index)\r\n        external\r\n        view\r\n        returns (address payable _address, uint256 groupId)\r\n    {\r\n        GroupMember memory groupMember = GroupMembers[index];\r\n        return (groupMember._address, groupMember.groupId);\r\n    }\r\n\r\n    function getGroupMembersDeepIndexer(uint256 groupId, address depositor)\r\n        external\r\n        view\r\n        returns (bool exists, uint256 index)\r\n    {\r\n\r\n            RecordIndex memory recordIndex\r\n         = GroupMembersDeepIndexer[groupId][depositor];\r\n        return (recordIndex.exists, recordIndex.index);\r\n    }\r\n\r\n    function getRecordIndexLengthForGroupMembersIndexer(uint256 groupId)\r\n        external\r\n        view\r\n        returns (uint256)\r\n    {\r\n        return GroupMembersIndexer[groupId].length;\r\n    }\r\n\r\n    function getRecordIndexLengthForGroupMembersIndexerByDepositor(\r\n        address depositor\r\n    ) external view returns (uint256) {\r\n        return GroupMembersIndexerByDepositor[depositor].length;\r\n    }\r\n\r\n    function getGroupMembersIndexer(uint256 groupId, uint256 indexerLocation)\r\n        external\r\n        view\r\n        returns (bool exist, uint256 index)\r\n    {\r\n\r\n            RecordIndex memory recordIndex\r\n         = GroupMembersIndexer[groupId][indexerLocation];\r\n        return (recordIndex.exists, recordIndex.index);\r\n    }\r\n\r\n    function getGroupMembersIndexerByDepositor(\r\n        address depositor,\r\n        uint256 indexerLocation\r\n    ) external view returns (bool exist, uint256 index) {\r\n\r\n            RecordIndex memory recordIndex\r\n         = GroupMembersIndexerByDepositor[depositor][indexerLocation];\r\n        return (recordIndex.exists, recordIndex.index);\r\n    }\r\n\r\n    function doesGroupMemberExist(uint256 groupId, address depositor)\r\n        external\r\n        view\r\n        returns (bool)\r\n    {\r\n        return _doesGroupMemberExist(groupId, depositor);\r\n    }\r\n\r\n    function _doesGroupMemberExist(uint256 groupId, address depositor)\r\n        internal\r\n        view\r\n        returns (bool)\r\n    {\r\n        bool exist = GroupMembersDeepIndexer[groupId][depositor].exists;\r\n        return exist;\r\n    }\r\n\r\n    function getGroupIndexer(uint256 groupId)\r\n        external\r\n        view\r\n        returns (bool exist, uint256 index)\r\n    {\r\n        RecordIndex memory recordIndex = GroupIndexer[groupId];\r\n        return (recordIndex.exists, recordIndex.index);\r\n    }\r\n\r\n    function getRecordIndexLengthForCreator(address groupCreator)\r\n        external\r\n        view\r\n        returns (uint256)\r\n    {\r\n        return GroupForCreatorIndexer[groupCreator].length;\r\n    }\r\n\r\n    function getGroupForCreatorIndexer(\r\n        address groupCreator,\r\n        uint256 indexerLocation\r\n    ) external view returns (bool exist, uint256 index) {\r\n\r\n            RecordIndex memory recordIndex\r\n         = GroupForCreatorIndexer[groupCreator][indexerLocation];\r\n        return (recordIndex.exists, recordIndex.index);\r\n    }\r\n\r\n    function getGroupIndexerByName(string calldata groupName)\r\n        external\r\n        view\r\n        returns (bool exist, uint256 index)\r\n    {\r\n        RecordIndex memory recordIndex = GroupIndexerByName[groupName];\r\n        return (recordIndex.exists, recordIndex.index);\r\n    }\r\n\r\n    function getGroupById(uint256 groupId)\r\n        external\r\n        view\r\n        returns (\r\n            uint256,\r\n            string memory,\r\n            string memory,\r\n            address payable\r\n        )\r\n    {\r\n        uint256 index = _getGroupIndex(groupId);\r\n\r\n        Group storage group = Groups[index];\r\n        return (group.id, group.name, group.symbol, group.creatorAddress);\r\n    }\r\n\r\n    function getGroupByIndex(uint256 index)\r\n        external\r\n        view\r\n        returns (\r\n            uint256,\r\n            string memory,\r\n            string memory,\r\n            address payable\r\n        )\r\n    {\r\n        return _getGroupByIndex(index);\r\n    }\r\n\r\n    function getGroupsLength() external view returns (uint256 length) {\r\n        return Groups.length;\r\n    }\r\n\r\n    function _getGroupByIndex(uint256 index)\r\n        internal\r\n        view\r\n        returns (\r\n            uint256,\r\n            string memory,\r\n            string memory,\r\n            address payable\r\n        )\r\n    {\r\n        uint256 length = Groups.length;\r\n        require(length > index, \"Out of range\");\r\n        Group storage group = Groups[index];\r\n        return (group.id, group.name, group.symbol, group.creatorAddress);\r\n    }\r\n\r\n    function getGroupIndex(uint256 groupId) external view returns (uint256) {\r\n        return _getGroupIndex(groupId);\r\n    }\r\n\r\n    function _getGroupIndex(uint256 groupId) internal view returns (uint256) {\r\n        bool doesGroupExist = GroupIndexer[groupId].exists;\r\n        require(doesGroupExist == true, \"Group not found\");\r\n        uint256 index = GroupIndexer[groupId].index;\r\n        return index;\r\n    }\r\n}\r\n",
  "sourcePath": "C:/Users/MKOPA/Documents/WORK/UGARSOFT/Fortube-Individual-Group-BSC/contracts/Groups.sol",
  "compiler": {
    "name": "solc",
    "version": "0.6.6+commit.6c089d02.Emscripten.clang"
  },
  "schemaVersion": "3.3.4",
  "updatedAt": "2021-03-30T20:55:27.598Z",
  "devdoc": {
    "methods": {}
  },
  "userdoc": {
    "methods": {}
  }
}