{
  "contractName": "StorageOwners",
  "abi": [
    {
      "inputs": [],
      "stateMutability": "nonpayable",
      "type": "constructor"
    },
    {
      "inputs": [
        {
          "internalType": "address",
          "name": "oracle",
          "type": "address"
        }
      ],
      "name": "activateStorageOracle",
      "outputs": [],
      "stateMutability": "nonpayable",
      "type": "function"
    },
    {
      "inputs": [
        {
          "internalType": "address",
          "name": "oracle",
          "type": "address"
        }
      ],
      "name": "deactivateStorageOracle",
      "outputs": [],
      "stateMutability": "nonpayable",
      "type": "function"
    },
    {
      "inputs": [
        {
          "internalType": "address",
          "name": "newOracle",
          "type": "address"
        }
      ],
      "name": "reAssignStorageOracle",
      "outputs": [],
      "stateMutability": "nonpayable",
      "type": "function"
    },
    {
      "inputs": [
        {
          "internalType": "address payable",
          "name": "newOwner",
          "type": "address"
        }
      ],
      "name": "transferOwnership",
      "outputs": [],
      "stateMutability": "nonpayable",
      "type": "function"
    }
  ],
  "bytecode": "0x608060405234801561001057600080fd5b5060008054600160a060020a0319163317905561035f806100326000396000f3fe608060405234801561001057600080fd5b5060043610610068577c010000000000000000000000000000000000000000000000000000000060003504630fdf80ed811461006d5780636041fc88146100955780636f583ba6146100bb578063f2fde38b146100e1575b600080fd5b6100936004803603602081101561008357600080fd5b5035600160a060020a0316610107565b005b610093600480360360208110156100ab57600080fd5b5035600160a060020a0316610196565b610093600480360360208110156100d157600080fd5b5035600160a060020a0316610207565b610093600480360360208110156100f757600080fd5b5035600160a060020a031661027e565b3360009081526001602052604090205460ff168061015d576040805160e560020a62461bcd02815260206004820152601f602482015260008051602061030a833981519152604482015290519081900360640190fd5b50336000908152600160208190526040808320805460ff19908116909155600160a060020a039490941683529091208054909216179055565b600054600160a060020a031633146101e6576040805160e560020a62461bcd02815260206004820152601f602482015260008051602061030a833981519152604482015290519081900360640190fd5b600160a060020a03166000908152600160205260409020805460ff19169055565b600054600160a060020a03163314610257576040805160e560020a62461bcd02815260206004820152601f602482015260008051602061030a833981519152604482015290519081900360640190fd5b600160a060020a03166000908152600160208190526040909120805460ff19169091179055565b600054600160a060020a031633146102ce576040805160e560020a62461bcd02815260206004820152601f602482015260008051602061030a833981519152604482015290519081900360640190fd5b600160a060020a03811615610306576000805473ffffffffffffffffffffffffffffffffffffffff1916600160a060020a0383161790555b5056fe756e617574686f72697a65642061636365737320746f20636f6e747261637400a2646970667358221220ac7b70642764ff201b0b05612f71c21f9b27d236bd6f3192557a07d6e75cfaaa64736f6c63430006060033",
  "immutableReferences": {},
  "source": "pragma solidity ^0.6.0;\r\n\r\ncontract StorageOwners {\r\n    address owner;\r\n    mapping(address => bool) private storageOracles;\r\n\r\n    constructor() public {\r\n        owner = msg.sender;\r\n    }\r\n\r\n    function activateStorageOracle(address oracle) external onlyOwner {\r\n        storageOracles[oracle] = true;\r\n    }\r\n\r\n    function deactivateStorageOracle(address oracle) external onlyOwner {\r\n        storageOracles[oracle] = false;\r\n    }\r\n\r\n    function reAssignStorageOracle(address newOracle)\r\n        external\r\n        onlyStorageOracle\r\n    {\r\n        storageOracles[msg.sender] = false;\r\n        storageOracles[newOracle] = true;\r\n    }\r\n\r\n    function transferOwnership(address payable newOwner) public onlyOwner {\r\n        if (newOwner != address(0)) {\r\n            owner = newOwner;\r\n        }\r\n    }\r\n\r\n    modifier onlyOwner() {\r\n        require(msg.sender == owner, \"unauthorized access to contract\");\r\n        _;\r\n    }\r\n\r\n    modifier onlyStorageOracle() {\r\n        bool hasAccess = storageOracles[msg.sender];\r\n        require(hasAccess, \"unauthorized access to contract\");\r\n        _;\r\n    }\r\n}\r\n",
  "sourcePath": "C:\\Users\\MKOPA\\Documents\\WORK\\UGARSOFT\\Fortube-Individual-Group-BSC\\contracts\\StorageOwners.sol",
  "compiler": {
    "name": "solc",
    "version": "0.6.6+commit.6c089d02.Emscripten.clang"
  },
  "schemaVersion": "3.3.4",
  "updatedAt": "2021-03-30T20:55:27.676Z",
  "devdoc": {
    "methods": {}
  },
  "userdoc": {
    "methods": {}
  }
}