{
  "contractName": "XendFinanceIndividual_Yearn_V1",
  "abi": [
    {
      "inputs": [
        {
          "internalType": "address",
          "name": "fortubeServiceAddress",
          "type": "address"
        },
        {
          "internalType": "address",
          "name": "tokenAddress",
          "type": "address"
        },
        {
          "internalType": "address",
          "name": "clientRecordStorageAddress",
          "type": "address"
        },
        {
          "internalType": "address",
          "name": "groupStorageAddress",
          "type": "address"
        },
        {
          "internalType": "address",
          "name": "savingsConfigAddress",
          "type": "address"
        },
        {
          "internalType": "address",
          "name": "derivativeTokenAddress",
          "type": "address"
        },
        {
          "internalType": "address",
          "name": "rewardConfigAddress",
          "type": "address"
        },
        {
          "internalType": "address",
          "name": "treasuryAddress",
          "type": "address"
        },
        {
          "internalType": "address",
          "name": "xendTokenAddress",
          "type": "address"
        }
      ],
      "stateMutability": "nonpayable",
      "type": "constructor"
    },
    {
      "anonymous": false,
      "inputs": [
        {
          "indexed": false,
          "internalType": "address payable",
          "name": "user",
          "type": "address"
        },
        {
          "indexed": false,
          "internalType": "uint256",
          "name": "underlyingAmount",
          "type": "uint256"
        },
        {
          "indexed": false,
          "internalType": "uint256",
          "name": "derivativeAmount",
          "type": "uint256"
        },
        {
          "indexed": false,
          "internalType": "uint256",
          "name": "balance",
          "type": "uint256"
        }
      ],
      "name": "DerivativeAssetWithdrawn",
      "type": "event"
    },
    {
      "anonymous": false,
      "inputs": [
        {
          "indexed": false,
          "internalType": "address payable",
          "name": "user",
          "type": "address"
        },
        {
          "indexed": false,
          "internalType": "uint256",
          "name": "underlyingAmount",
          "type": "uint256"
        },
        {
          "indexed": false,
          "internalType": "uint256",
          "name": "derivativeAmount",
          "type": "uint256"
        }
      ],
      "name": "DerivativeAssetWithdrawnFromFixed",
      "type": "event"
    },
    {
      "anonymous": false,
      "inputs": [
        {
          "indexed": false,
          "internalType": "address payable",
          "name": "user",
          "type": "address"
        },
        {
          "indexed": false,
          "internalType": "uint256",
          "name": "underlyingAmount",
          "type": "uint256"
        },
        {
          "indexed": false,
          "internalType": "uint256",
          "name": "derivativeAmount",
          "type": "uint256"
        },
        {
          "indexed": false,
          "internalType": "uint256",
          "name": "balance",
          "type": "uint256"
        }
      ],
      "name": "UnderlyingAssetDeposited",
      "type": "event"
    },
    {
      "anonymous": false,
      "inputs": [
        {
          "indexed": false,
          "internalType": "uint256",
          "name": "date",
          "type": "uint256"
        },
        {
          "indexed": true,
          "internalType": "address payable",
          "name": "member",
          "type": "address"
        },
        {
          "indexed": false,
          "internalType": "uint256",
          "name": "amount",
          "type": "uint256"
        }
      ],
      "name": "XendTokenReward",
      "type": "event"
    },
    {
      "inputs": [],
      "name": "owner",
      "outputs": [
        {
          "internalType": "address payable",
          "name": "",
          "type": "address"
        }
      ],
      "stateMutability": "view",
      "type": "function"
    },
    {
      "inputs": [
        {
          "internalType": "address payable",
          "name": "newOwner",
          "type": "address"
        }
      ],
      "name": "transferOwnership",
      "outputs": [],
      "stateMutability": "nonpayable",
      "type": "function"
    },
    {
      "inputs": [
        {
          "internalType": "address",
          "name": "newServiceAddress",
          "type": "address"
        }
      ],
      "name": "deprecateContract",
      "outputs": [],
      "stateMutability": "nonpayable",
      "type": "function"
    },
    {
      "inputs": [],
      "name": "GetTotalTokenRewardDistributed",
      "outputs": [
        {
          "internalType": "uint256",
          "name": "",
          "type": "uint256"
        }
      ],
      "stateMutability": "view",
      "type": "function"
    },
    {
      "inputs": [
        {
          "internalType": "address",
          "name": "member",
          "type": "address"
        }
      ],
      "name": "GetMemberXendTokenReward",
      "outputs": [
        {
          "internalType": "uint256",
          "name": "",
          "type": "uint256"
        }
      ],
      "stateMutability": "view",
      "type": "function"
    },
    {
      "inputs": [
        {
          "internalType": "address",
          "name": "depositor",
          "type": "address"
        }
      ],
      "name": "doesClientRecordExist",
      "outputs": [
        {
          "internalType": "bool",
          "name": "",
          "type": "bool"
        }
      ],
      "stateMutability": "view",
      "type": "function"
    },
    {
      "inputs": [],
      "name": "getAdapterAddress",
      "outputs": [],
      "stateMutability": "nonpayable",
      "type": "function"
    },
    {
      "inputs": [
        {
          "internalType": "address",
          "name": "depositor",
          "type": "address"
        }
      ],
      "name": "getClientRecord",
      "outputs": [
        {
          "internalType": "address payable",
          "name": "_address",
          "type": "address"
        },
        {
          "internalType": "uint256",
          "name": "underlyingTotalDeposits",
          "type": "uint256"
        },
        {
          "internalType": "uint256",
          "name": "underlyingTotalWithdrawn",
          "type": "uint256"
        },
        {
          "internalType": "uint256",
          "name": "derivativeBalance",
          "type": "uint256"
        },
        {
          "internalType": "uint256",
          "name": "derivativeTotalDeposits",
          "type": "uint256"
        },
        {
          "internalType": "uint256",
          "name": "derivativeTotalWithdrawn",
          "type": "uint256"
        }
      ],
      "stateMutability": "view",
      "type": "function"
    },
    {
      "inputs": [],
      "name": "getClientRecord",
      "outputs": [
        {
          "internalType": "address payable",
          "name": "_address",
          "type": "address"
        },
        {
          "internalType": "uint256",
          "name": "underlyingTotalDeposits",
          "type": "uint256"
        },
        {
          "internalType": "uint256",
          "name": "underlyingTotalWithdrawn",
          "type": "uint256"
        },
        {
          "internalType": "uint256",
          "name": "derivativeBalance",
          "type": "uint256"
        },
        {
          "internalType": "uint256",
          "name": "derivativeTotalDeposits",
          "type": "uint256"
        },
        {
          "internalType": "uint256",
          "name": "derivativeTotalWithdrawn",
          "type": "uint256"
        }
      ],
      "stateMutability": "view",
      "type": "function"
    },
    {
      "inputs": [
        {
          "internalType": "uint256",
          "name": "index",
          "type": "uint256"
        }
      ],
      "name": "getClientRecordByIndex",
      "outputs": [
        {
          "internalType": "address payable",
          "name": "_address",
          "type": "address"
        },
        {
          "internalType": "uint256",
          "name": "underlyingTotalDeposits",
          "type": "uint256"
        },
        {
          "internalType": "uint256",
          "name": "underlyingTotalWithdrawn",
          "type": "uint256"
        },
        {
          "internalType": "uint256",
          "name": "derivativeBalance",
          "type": "uint256"
        },
        {
          "internalType": "uint256",
          "name": "derivativeTotalDeposits",
          "type": "uint256"
        },
        {
          "internalType": "uint256",
          "name": "derivativeTotalWithdrawn",
          "type": "uint256"
        }
      ],
      "stateMutability": "view",
      "type": "function"
    },
    {
      "inputs": [
        {
          "internalType": "uint256",
          "name": "minimumLockPeriod",
          "type": "uint256"
        }
      ],
      "name": "setMinimumLockPeriod",
      "outputs": [],
      "stateMutability": "nonpayable",
      "type": "function"
    },
    {
      "inputs": [
        {
          "internalType": "uint256",
          "name": "derivativeAmount",
          "type": "uint256"
        }
      ],
      "name": "withdraw",
      "outputs": [],
      "stateMutability": "nonpayable",
      "type": "function"
    },
    {
      "inputs": [
        {
          "internalType": "address payable",
          "name": "recipient",
          "type": "address"
        },
        {
          "internalType": "uint256",
          "name": "derivativeAmount",
          "type": "uint256"
        }
      ],
      "name": "withdrawDelegate",
      "outputs": [],
      "stateMutability": "nonpayable",
      "type": "function"
    },
    {
      "inputs": [
        {
          "internalType": "uint256",
          "name": "derivativeAmount",
          "type": "uint256"
        }
      ],
      "name": "withdrawByShares",
      "outputs": [],
      "stateMutability": "nonpayable",
      "type": "function"
    },
    {
      "inputs": [],
      "name": "deposit",
      "outputs": [],
      "stateMutability": "nonpayable",
      "type": "function"
    },
    {
      "inputs": [
        {
          "internalType": "address payable",
          "name": "depositorAddress",
          "type": "address"
        }
      ],
      "name": "depositDelegate",
      "outputs": [],
      "stateMutability": "nonpayable",
      "type": "function"
    },
    {
      "inputs": [
        {
          "internalType": "uint256",
          "name": "depositDateInSeconds",
          "type": "uint256"
        },
        {
          "internalType": "uint256",
          "name": "lockPeriodInSeconds",
          "type": "uint256"
        }
      ],
      "name": "FixedDeposit",
      "outputs": [],
      "stateMutability": "nonpayable",
      "type": "function"
    },
    {
      "inputs": [
        {
          "internalType": "uint256",
          "name": "recordId",
          "type": "uint256"
        },
        {
          "internalType": "uint256",
          "name": "amount",
          "type": "uint256"
        },
        {
          "internalType": "uint256",
          "name": "depositDateInSeconds",
          "type": "uint256"
        },
        {
          "internalType": "uint256",
          "name": "lockPeriodInSeconds",
          "type": "uint256"
        }
      ],
      "name": "WithdrawFromFixedDeposit",
      "outputs": [],
      "stateMutability": "nonpayable",
      "type": "function"
    }
  ],
  "bytecode": "0x608060405262786450600155600a805460a060020a60ff02191690553480156200002857600080fd5b5060405162003ea838038062003ea88339810160408190526200004b916200011e565b6000805433600160a060020a031991821617909155600280548216600160a060020a039b8c16179055600380548216998b16998a179055600c80548216909917909855600580548916978a16979097179096556006805488169589169590951790945560078054871693881693909317909255600480548616918716919091179055600880548516918616919091179055600a80548416918516919091179055600980549092169216919091179055620001e1565b8051600160a060020a03811681146200011857600080fd5b92915050565b60008060008060008060008060006101208a8c0312156200013d578485fd5b620001498b8b62000100565b98506200015a8b60208c0162000100565b97506200016b8b60408c0162000100565b96506200017c8b60608c0162000100565b95506200018d8b60808c0162000100565b94506200019e8b60a08c0162000100565b9350620001af8b60c08c0162000100565b9250620001c08b60e08c0162000100565b9150620001d28b6101008c0162000100565b90509295985092959850929598565b613cb780620001f16000396000f3fe608060405234801561001057600080fd5b506004361061011a5760003560e060020a90048063a53b0a0a116100a6578063da26ec2211610075578063da26ec221461022e578063e08c694c14610241578063e6a71e6114610254578063eec562c31461025c578063f2fde38b1461026f5761011a565b8063a53b0a0a146101d9578063c459b731146101fe578063cf04a19d14610213578063d0e30db0146102265761011a565b80632e1a7d4d116100ed5780632e1a7d4d14610178578063759dc9021461018b5780637d6633d01461019e5780638bb34bab146101b15780638da5cb5b146101c45761011a565b806306d4a9911461011f5780630a1b549414610134578063242222e01461013c5780632adc57a61461014f575b600080fd5b61013261012d366004613438565b610282565b005b61013261092b565b61013261014a36600461325e565b6109d6565b61016261015d36600461325e565b610d69565b60405161016f919061358b565b60405180910390f35b61013261018636600461332f565b610e38565b6101326101993660046133be565b610e74565b6101326101ac366004613296565b61161e565b6101326101bf36600461332f565b611682565b6101cc611827565b60405161016f9190613469565b6101ec6101e736600461325e565b611836565b60405161016f96959493929190613558565b6102066118b5565b60405161016f9190613bd9565b61013261022136600461332f565b6118bb565b61013261191a565b61013261023c36600461325e565b611954565b6101ec61024f36600461332f565b6119b7565b6101ec611a02565b61020661026a36600461325e565b611a80565b61013261027d36600461325e565b611a9b565b600a5460a060020a900460ff16156102b85760405160e560020a62461bcd0281526004016102af906137a3565b60405180910390fd5b336102c16131ce565b6102ca86611af7565b905083836102d88888611bb7565b60025460405160e160020a6348d8bf43028152600091600160a060020a0316906391b17e869061030c903090600401613469565b60206040518083038186803b15801561032457600080fd5b505afa158015610338573d6000803e3d6000fd5b505050506040513d601f19601f8201168201806040525081019061035c9190613347565b9050600260009054906101000a9004600160a060020a0316600160a060020a031663352c95b76040518163ffffffff1660e060020a02815260040160206040518083038186803b1580156103af57600080fd5b505afa1580156103c3573d6000803e3d6000fd5b505050506040513d601f19601f820116820180604052508101906103e7919061327a565b600b8054600160a060020a031916600160a060020a0392831617908190556004805460405160e060020a63095ea7b30281526000949182169363095ea7b3936104379391909116918e91016134bb565b602060405180830381600087803b15801561045157600080fd5b505af1158015610465573d6000803e3d6000fd5b505050506040513d601f19601f820116820180604052508101906104899190613313565b90506001811515146104b05760405160e560020a62461bcd0281526004016102af90613800565b6002546040517f6583d12a000000000000000000000000000000000000000000000000000000008152600160a060020a0390911690636583d12a906104f9908c90600401613bd9565b600060405180830381600087803b15801561051357600080fd5b505af1158015610527573d6000803e3d6000fd5b505060025460405160e160020a6348d8bf4302815260009350600160a060020a0390911691506391b17e8690610561903090600401613469565b60206040518083038186803b15801561057957600080fd5b505afa15801561058d573d6000803e3d6000fd5b505050506040513d601f19601f820116820180604052508101906105b19190613347565b90508281116105d55760405160e560020a62461bcd0281526004016102af906139d1565b60006105e7828563ffffffff611c3f16565b905060006105f482611c88565b90508082116106185760405160e560020a62461bcd0281526004016102af90613a8b565b600061062a838363ffffffff611c3f16565b60035460405160e060020a63a9059cbb028152919250600160a060020a03169063a9059cbb90610660908d9085906004016134bb565b602060405180830381600087803b15801561067a57600080fd5b505af115801561068e573d6000803e3d6000fd5b505050506040513d601f19601f820116820180604052508101906106b29190613313565b5081156107c557600354600a5460405160e060020a63095ea7b3028152600160a060020a039283169263095ea7b3926106f29291169086906004016134bb565b602060405180830381600087803b15801561070c57600080fd5b505af1158015610720573d6000803e3d6000fd5b505050506040513d601f19601f820116820180604052508101906107449190613313565b50600a546003546040517f2fd55265000000000000000000000000000000000000000000000000000000008152600160a060020a0392831692632fd552659261079292911690600401613469565b600060405180830381600087803b1580156107ac57600080fd5b505af11580156107c0573d6000803e3d6000fd5b505050505b600560009054906101000a9004600160a060020a0316600160a060020a0316635898d8838f8f60008b8d3360016040518863ffffffff1660e060020a0281526004016108179796959493929190613bf0565b600060405180830381600087803b15801561083157600080fd5b505af1158015610845573d6000803e3d6000fd5b50505050600560009054906101000a9004600160a060020a0316600160a060020a031663b91e1e228b8b600001518c6060015160008c8e60016040518863ffffffff1660e060020a0281526004016108a397969594939291906134f5565b600060405180830381600087803b1580156108bd57600080fd5b505af11580156108d1573d6000803e3d6000fd5b505050506108e0878e8c611cec565b7fc077a547e9e4a5a81fb1173392ff24703313b77d7d5de1c1a7ca082295392eed8a848f604051610913939291906134d4565b60405180910390a15050505050505050505050505050565b600260009054906101000a9004600160a060020a0316600160a060020a031663352c95b76040518163ffffffff1660e060020a02815260040160206040518083038186803b15801561097c57600080fd5b505afa158015610990573d6000803e3d6000fd5b505050506040513d601f19601f820116820180604052508101906109b4919061327a565b600b8054600160a060020a031916600160a060020a0392909216919091179055565b600054600160a060020a03163314610a035760405160e560020a62461bcd0281526004016102af9061376c565b600a5460a060020a900460ff1615610a305760405160e560020a62461bcd0281526004016102af906137a3565b600a805474ff0000000000000000000000000000000000000000191660a060020a1790556005546040517f0fdf80ed000000000000000000000000000000000000000000000000000000008152600160a060020a0390911690630fdf80ed90610a9d908490600401613469565b600060405180830381600087803b158015610ab757600080fd5b505af1158015610acb573d6000803e3d6000fd5b50506006546040517f0fdf80ed000000000000000000000000000000000000000000000000000000008152600160a060020a039091169250630fdf80ed9150610b18908490600401613469565b600060405180830381600087803b158015610b3257600080fd5b505af1158015610b46573d6000803e3d6000fd5b50506004805460405160e060020a6370a0823102815260009450600160a060020a0390911692506370a0823191610b7f91309101613469565b60206040518083038186803b158015610b9757600080fd5b505afa158015610bab573d6000803e3d6000fd5b505050506040513d601f19601f82011682018060405250810190610bcf9190613347565b6004805460405160e060020a63a9059cbb028152929350600160a060020a03169163a9059cbb91610c049186918691016134bb565b602060405180830381600087803b158015610c1e57600080fd5b505af1158015610c32573d6000803e3d6000fd5b505050506040513d601f19601f82011682018060405250810190610c569190613313565b5060035460405160e060020a6370a08231028152600091600160a060020a0316906370a0823190610c8b903090600401613469565b60206040518083038186803b158015610ca357600080fd5b505afa158015610cb7573d6000803e3d6000fd5b505050506040513d601f19601f82011682018060405250810190610cdb9190613347565b60035460405160e060020a63a9059cbb028152919250600160a060020a03169063a9059cbb90610d1190869085906004016134bb565b602060405180830381600087803b158015610d2b57600080fd5b505af1158015610d3f573d6000803e3d6000fd5b505050506040513d601f19601f82011682018060405250810190610d639190613313565b50505050565b600a5460009060a060020a900460ff1615610d995760405160e560020a62461bcd0281526004016102af906137a3565b6005546040517f2adc57a6000000000000000000000000000000000000000000000000000000008152600160a060020a0390911690632adc57a690610de2908590600401613469565b60206040518083038186803b158015610dfa57600080fd5b505afa158015610e0e573d6000803e3d6000fd5b505050506040513d601f19601f82011682018060405250810190610e329190613313565b92915050565b600a5460a060020a900460ff1615610e655760405160e560020a62461bcd0281526004016102af906137a3565b33610e708183611e37565b5050565b600a5460a060020a900460ff1615610ea15760405160e560020a62461bcd0281526004016102af906137a3565b6003546040517fdd62ed3e00000000000000000000000000000000000000000000000000000000815233913091600091600160a060020a03169063dd62ed3e90610ef1908690869060040161347d565b60206040518083038186803b158015610f0957600080fd5b505afa158015610f1d573d6000803e3d6000fd5b505050506040513d601f19601f82011682018060405250810190610f419190613347565b9050600154841015610f685760405160e560020a62461bcd0281526004016102af90613b45565b60008111610f8b5760405160e560020a62461bcd0281526004016102af906135e9565b6003546040517f23b872dd000000000000000000000000000000000000000000000000000000008152600091600160a060020a0316906323b872dd90610fd990879087908790600401613497565b602060405180830381600087803b158015610ff357600080fd5b505af1158015611007573d6000803e3d6000fd5b505050506040513d601f19601f8201168201806040525081019061102b9190613313565b90506001811515146110525760405160e560020a62461bcd0281526004016102af906136b2565b6002546040517f274100d9000000000000000000000000000000000000000000000000000000008152600091600160a060020a03169063274100d99061109c903090600401613469565b60206040518083038186803b1580156110b457600080fd5b505afa1580156110c8573d6000803e3d6000fd5b505050506040513d601f19601f820116820180604052508101906110ec9190613347565b9050600260009054906101000a9004600160a060020a0316600160a060020a031663352c95b76040518163ffffffff1660e060020a02815260040160206040518083038186803b15801561113f57600080fd5b505afa158015611153573d6000803e3d6000fd5b505050506040513d601f19601f82011682018060405250810190611177919061327a565b600b8054600160a060020a031916600160a060020a03928316179081905560035460405160e060020a63095ea7b30281529083169263095ea7b3926111c39291169087906004016134bb565b602060405180830381600087803b1580156111dd57600080fd5b505af11580156111f1573d6000803e3d6000fd5b505050506040513d601f19601f820116820180604052508101906112159190613313565b506002546040517fad737613000000000000000000000000000000000000000000000000000000008152600160a060020a039091169063ad7376139061125f908690600401613bd9565b600060405180830381600087803b15801561127957600080fd5b505af115801561128d573d6000803e3d6000fd5b50506002546040517f274100d900000000000000000000000000000000000000000000000000000000815260009350600160a060020a03909116915063274100d9906112dd903090600401613469565b60206040518083038186803b1580156112f557600080fd5b505afa158015611309573d6000803e3d6000fd5b505050506040513d601f19601f8201168201806040525081019061132d9190613347565b90506000611341828463ffffffff611c3f16565b6005546040517f7a3f449a000000000000000000000000000000000000000000000000000000008152919250600160a060020a031690637a3f449a9061139690889085908d908f908e90600090600401613c2b565b602060405180830381600087803b1580156113b057600080fd5b505af11580156113c4573d6000803e3d6000fd5b505050506040513d601f19601f820116820180604052508101906113e89190613347565b50600554604080517ffbae33720000000000000000000000000000000000000000000000000000000081529051600160a060020a0390921691639ff8325b918a91849163fbae3372916004808301926020929190829003018186803b15801561145057600080fd5b505afa158015611464573d6000803e3d6000fd5b505050506040513d601f19601f820116820180604052508101906114889190613347565b6040518363ffffffff1660e060020a0281526004016114a89291906134bb565b600060405180830381600087803b1580156114c257600080fd5b505af11580156114d6573d6000803e3d6000fd5b5050600554604080517ffbae33720000000000000000000000000000000000000000000000000000000081529051600160a060020a03909216935063b91e1e2292508a91849163fbae3372916004808301926020929190829003018186803b15801561154157600080fd5b505afa158015611555573d6000803e3d6000fd5b505050506040513d601f19601f820116820180604052508101906115799190613347565b88858d8f60006040518863ffffffff1660e060020a0281526004016115a497969594939291906134f5565b600060405180830381600087803b1580156115be57600080fd5b505af11580156115d2573d6000803e3d6000fd5b505050507f86a9dc3904ee8065112f9a0b8fa88e50a3d11fde7dd6d983619db7e3176bd0458786838860405161160b9493929190613532565b60405180910390a1505050505050505050565b600a5460a060020a900460ff161561164b5760405160e560020a62461bcd0281526004016102af906137a3565b600054600160a060020a031633146116785760405160e560020a62461bcd0281526004016102af9061376c565b610e708282611e37565b600260009054906101000a9004600160a060020a0316600160a060020a031663352c95b76040518163ffffffff1660e060020a02815260040160206040518083038186803b1580156116d357600080fd5b505afa1580156116e7573d6000803e3d6000fd5b505050506040513d601f19601f8201168201806040525081019061170b919061327a565b600b8054600160a060020a031916600160a060020a0392831617908190556004805460405160e060020a63095ea7b30281529084169363095ea7b393611756939116918691016134bb565b602060405180830381600087803b15801561177057600080fd5b505af1158015611784573d6000803e3d6000fd5b505050506040513d601f19601f820116820180604052508101906117a89190613313565b506002546040517f6583d12a000000000000000000000000000000000000000000000000000000008152600160a060020a0390911690636583d12a906117f2908490600401613bd9565b600060405180830381600087803b15801561180c57600080fd5b505af1158015611820573d6000803e3d6000fd5b5050505050565b600054600160a060020a031681565b600a546000908190819081908190819060a060020a900460ff16156118705760405160e560020a62461bcd0281526004016102af906137a3565b611878613216565b611881886123c5565b602081015160408201516060830151608084015160a085015160c090950151939d929c50909a509850919650945092505050565b600f5490565b600a5460a060020a900460ff16156118e85760405160e560020a62461bcd0281526004016102af906137a3565b600054600160a060020a031633146119155760405160e560020a62461bcd0281526004016102af9061376c565b600155565b600a5460a060020a900460ff16156119475760405160e560020a62461bcd0281526004016102af906137a3565b33611951816124bb565b50565b600a5460a060020a900460ff16156119815760405160e560020a62461bcd0281526004016102af906137a3565b600054600160a060020a031633146119ae5760405160e560020a62461bcd0281526004016102af9061376c565b611951816124bb565b600a546000908190819081908190819060a060020a900460ff16156119f15760405160e560020a62461bcd0281526004016102af906137a3565b6119f9613216565b61188188612ab4565b600a546000908190819081908190819060a060020a900460ff1615611a3c5760405160e560020a62461bcd0281526004016102af906137a3565b611a44613216565b611a4d336123c5565b602081015160408201516060830151608084015160a085015160c090950151939c929b5090995097509195509350915050565b600160a060020a03166000908152600d602052604090205490565b600054600160a060020a03163314611ac85760405160e560020a62461bcd0281526004016102af9061376c565b600160a060020a038116156119515760008054600160a060020a038316600160a060020a031990911617905550565b611aff6131ce565b6005546040517f35dc275b00000000000000000000000000000000000000000000000000000000815260009182918291829182918291600160a060020a03909116906335dc275b90611b55908b90600401613bd9565b60c06040518083038186803b158015611b6d57600080fd5b505afa158015611b81573d6000803e3d6000fd5b505050506040513d601f19601f82011682018060405250810190611ba5919061335f565b509a9c9b505050505050505050505050565b611bbf6131ce565b611bc883611af7565b60a0810151608082015191925090600090611be9908363ffffffff612b1216565b60408401519091508015611c125760405160e560020a62461bcd0281526004016102af90613646565b4282811015611c365760405160e560020a62461bcd0281526004016102af90613917565b50505050505050565b6000611c8183836040518060400160405280601e81526020017f536166654d6174683a207375627472616374696f6e206f766572666c6f770000815250612b3a565b9392505050565b600080611c93612b69565b90506000611c9f612caa565b905060008411611cc45760405160e560020a62461bcd0281526004016102af9061370f565b611ce481611cd8868563ffffffff612d3016565b9063ffffffff612d6d16565b949350505050565b6008546040517feabe85cb000000000000000000000000000000000000000000000000000000008152600091600160a060020a03169063eabe85cb90611d389087908790600401613be2565b60206040518083038186803b158015611d5057600080fd5b505afa158015611d64573d6000803e3d6000fd5b505050506040513d601f19601f82011682018060405250810190611d889190613347565b90508015610d63576009546040517f40c10f19000000000000000000000000000000000000000000000000000000008152600160a060020a03909116906340c10f1990611ddb90859085906004016134bb565b600060405180830381600087803b158015611df557600080fd5b505af1158015611e09573d6000803e3d6000fd5b50505050611e178282612daf565b600f54611e2a908263ffffffff612b1216565b600f55610d638282612e25565b611e418282612e6c565b5060025460405160e160020a6348d8bf43028152600091600160a060020a0316906391b17e8690611e76903090600401613469565b60206040518083038186803b158015611e8e57600080fd5b505afa158015611ea2573d6000803e3d6000fd5b505050506040513d601f19601f82011682018060405250810190611ec69190613347565b9050600260009054906101000a9004600160a060020a0316600160a060020a031663352c95b76040518163ffffffff1660e060020a02815260040160206040518083038186803b158015611f1957600080fd5b505afa158015611f2d573d6000803e3d6000fd5b505050506040513d601f19601f82011682018060405250810190611f51919061327a565b600b8054600160a060020a031916600160a060020a0392831617908190556004805460405160e060020a63095ea7b30281526000949182169363095ea7b393611fa19391909116918891016134bb565b602060405180830381600087803b158015611fbb57600080fd5b505af1158015611fcf573d6000803e3d6000fd5b505050506040513d601f19601f82011682018060405250810190611ff39190613313565b905060018115151461201a5760405160e560020a62461bcd0281526004016102af90613800565b6002546040517f6583d12a000000000000000000000000000000000000000000000000000000008152600160a060020a0390911690636583d12a90612063908690600401613bd9565b600060405180830381600087803b15801561207d57600080fd5b505af1158015612091573d6000803e3d6000fd5b505060025460405160e160020a6348d8bf4302815260009350600160a060020a0390911691506391b17e86906120cb903090600401613469565b60206040518083038186803b1580156120e357600080fd5b505afa1580156120f7573d6000803e3d6000fd5b505050506040513d601f19601f8201168201806040525081019061211b9190613347565b905082811161213f5760405160e560020a62461bcd0281526004016102af90613a2e565b6000612151828563ffffffff611c3f16565b9050600061215e82611c88565b90508082116121825760405160e560020a62461bcd0281526004016102af90613a8b565b6000612194838363ffffffff611c3f16565b60035460405160e060020a63a9059cbb028152919250600091600160a060020a039091169063a9059cbb906121cf908c9086906004016134bb565b602060405180830381600087803b1580156121e957600080fd5b505af11580156121fd573d6000803e3d6000fd5b505050506040513d601f19601f820116820180604052508101906122219190613313565b90506001811515146122485760405160e560020a62461bcd0281526004016102af90613ba2565b821561235a57600354600a5460405160e060020a63095ea7b3028152600160a060020a039283169263095ea7b3926122879291169087906004016134bb565b602060405180830381600087803b1580156122a157600080fd5b505af11580156122b5573d6000803e3d6000fd5b505050506040513d601f19601f820116820180604052508101906122d99190613313565b50600a546003546040517f2fd55265000000000000000000000000000000000000000000000000000000008152600160a060020a0392831692632fd552659261232792911690600401613469565b600060405180830381600087803b15801561234157600080fd5b505af1158015612355573d6000803e3d6000fd5b505050505b612362613216565b61236d8a868b612eb2565b905061237881612f24565b7fd5468dee606e30ba003497bfa4b158e7a8b1134f21a820a3d72e4b3d8af8514f8a868b84608001516040516123b19493929190613532565b60405180910390a150505050505050505050565b6123cd613216565b6005546040517f7c79ed4600000000000000000000000000000000000000000000000000000000815260009182918291829182918291600160a060020a0390911690637c79ed4690612423908b90600401613469565b60c06040518083038186803b15801561243b57600080fd5b505afa15801561244f573d6000803e3d6000fd5b505050506040513d601f19601f8201168201806040525081019061247391906132c1565b6040805160e08101825260018152600160a060020a0390971660208801528601949094526060850192909252608084015260a083015260c08201529650505050505050919050565b6003546040517fdd62ed3e0000000000000000000000000000000000000000000000000000000081523091600091600160a060020a039091169063dd62ed3e9061250b908690869060040161347d565b60206040518083038186803b15801561252357600080fd5b505afa158015612537573d6000803e3d6000fd5b505050506040513d601f19601f8201168201806040525081019061255b9190613347565b9050600081116125805760405160e560020a62461bcd0281526004016102af906135e9565b6003546040517f23b872dd000000000000000000000000000000000000000000000000000000008152600091600160a060020a0316906323b872dd906125ce90879087908790600401613497565b602060405180830381600087803b1580156125e857600080fd5b505af11580156125fc573d6000803e3d6000fd5b505050506040513d601f19601f820116820180604052508101906126209190613313565b90506001811515146126475760405160e560020a62461bcd0281526004016102af906136b2565b6004805460405160e060020a6370a08231028152600092600160a060020a03909216916370a082319161267c91309101613469565b60206040518083038186803b15801561269457600080fd5b505afa1580156126a8573d6000803e3d6000fd5b505050506040513d601f19601f820116820180604052508101906126cc9190613347565b9050600260009054906101000a9004600160a060020a0316600160a060020a031663352c95b76040518163ffffffff1660e060020a02815260040160206040518083038186803b15801561271f57600080fd5b505afa158015612733573d6000803e3d6000fd5b505050506040513d601f19601f82011682018060405250810190612757919061327a565b600b8054600160a060020a031916600160a060020a03928316179081905560035460405160e060020a63095ea7b30281529083169263095ea7b3926127a39291169087906004016134bb565b602060405180830381600087803b1580156127bd57600080fd5b505af11580156127d1573d6000803e3d6000fd5b505050506040513d601f19601f820116820180604052508101906127f59190613313565b506002546040517fad737613000000000000000000000000000000000000000000000000000000008152600160a060020a039091169063ad7376139061283f908690600401613bd9565b600060405180830381600087803b15801561285957600080fd5b505af115801561286d573d6000803e3d6000fd5b50506004805460405160e060020a6370a0823102815260009450600160a060020a0390911692506370a08231916128a691309101613469565b60206040518083038186803b1580156128be57600080fd5b505afa1580156128d2573d6000803e3d6000fd5b505050506040513d601f19601f820116820180604052508101906128f69190613347565b9050600061290a828463ffffffff611c3f16565b9050612914613216565b61291f888784612f8f565b6005546040517f2adc57a6000000000000000000000000000000000000000000000000000000008152919250600091600160a060020a0390911690632adc57a69061296e908c90600401613469565b60206040518083038186803b15801561298657600080fd5b505afa15801561299a573d6000803e3d6000fd5b505050506040513d601f19601f820116820180604052508101906129be9190613313565b905080156129d4576129cf82612f24565b612a72565b60055460208301516040808501516060860151608087015160a088015160c089015194517f89694be7000000000000000000000000000000000000000000000000000000008152600160a060020a03909716966389694be796612a3f96909594939291600401613558565b600060405180830381600087803b158015612a5957600080fd5b505af1158015612a6d573d6000803e3d6000fd5b505050505b612a7b876130f3565b7f86a9dc3904ee8065112f9a0b8fa88e50a3d11fde7dd6d983619db7e3176bd045898885856080015160405161160b9493929190613532565b612abc613216565b6005546040517fe08c694c00000000000000000000000000000000000000000000000000000000815260009182918291829182918291600160a060020a039091169063e08c694c90612423908b90600401613bd9565b600082820183811015611c815760405160e560020a62461bcd0281526004016102af9061367b565b60008184841115612b615760405160e560020a62461bcd0281526004016102af9190613596565b505050900390565b600754604080518082018252601f81527f58454e445f46494e414e43455f434f4d4d4953494f4e5f4449564944454e4400602082015290517f37f2a02400000000000000000000000000000000000000000000000000000000815260009283928392839283928392600160a060020a03909216916337f2a02491612bef91600401613596565b60a060405180830381600087803b158015612c0957600080fd5b505af1158015612c1d573d6000803e3d6000fd5b505050506040513d601f19601f82011682018060405250810190612c4191906133df565b945094509450945094508115156001151514612c725760405160e560020a62461bcd0281526004016102af906138ba565b6001816001811115612c8057fe5b14612ca05760405160e560020a62461bcd0281526004016102af90613ae8565b5090935050505090565b600754604080518082018252601e81527f58454e445f46494e414e43455f434f4d4d4953494f4e5f44495649534f520000602082015290517f37f2a02400000000000000000000000000000000000000000000000000000000815260009283928392839283928392600160a060020a03909216916337f2a02491612bef91600401613596565b600082612d3f57506000610e32565b82820282848281612d4c57fe5b0414611c815760405160e560020a62461bcd0281526004016102af9061385d565b6000611c8183836040518060400160405280601a81526020017f536166654d6174683a206469766973696f6e206279207a65726f000000000000815250613194565b600a5460a060020a900460ff1615612ddc5760405160e560020a62461bcd0281526004016102af906137a3565b600160a060020a0382166000908152600d6020526040902054612e05908263ffffffff612b1216565b600160a060020a039092166000908152600d602052604090209190915550565b81600160a060020a03167fedc02529ff71ee6028ad075806d0f6ac8bc18e48d2230ac2961d468d285f20ba4283604051612e60929190613be2565b60405180910390a25050565b6000612e76613216565b612e7f846123c5565b608081015190915083811015612eaa5760405160e560020a62461bcd0281526004016102af90613974565b505092915050565b612eba613216565b612ec2613216565b612ecb856123c5565b6060810151909150612ee3908563ffffffff612b1216565b606082015260c0810151612efd908463ffffffff612b1216565b60c08201526080810151612f17908463ffffffff611c3f16565b6080820152949350505050565b60055460208201516040808401516060850151608086015160a087015160c088015194517f46854aa7000000000000000000000000000000000000000000000000000000008152600160a060020a03909716966346854aa7966117f296909594939291600401613558565b612f97613216565b6005546040517f2adc57a6000000000000000000000000000000000000000000000000000000008152600091600160a060020a031690632adc57a690612fe1908890600401613469565b60206040518083038186803b158015612ff957600080fd5b505afa15801561300d573d6000803e3d6000fd5b505050506040513d601f19601f820116820180604052508101906130319190613313565b90508061308857613040613216565b50506040805160e08101825260018152600160a060020a03861660208201529081018490526000606082018190526080820184905260a0820184905260c08201529050611c81565b613090613216565b613099866123c5565b60408101519091506130b1908663ffffffff612b1216565b604082015260a08101516130cb908563ffffffff612b1216565b60a082015260808101516130e5908563ffffffff612b1216565b60808201529150611c819050565b600654600c546040517f8c224826000000000000000000000000000000000000000000000000000000008152600160a060020a0392831692638c224826926131429291169085906004016134bb565b602060405180830381600087803b15801561315c57600080fd5b505af1158015613170573d6000803e3d6000fd5b505050506040513d601f19601f82011682018060405250810190610e709190613347565b600081836131b85760405160e560020a62461bcd0281526004016102af9190613596565b5060008385816131c457fe5b0495945050505050565b6040518060e00160405280600081526020016000600160a060020a03168152602001600015158152602001600081526020016000815260200160008152602001600081525090565b6040518060e001604052806000151581526020016000600160a060020a0316815260200160008152602001600081526020016000815260200160008152602001600081525090565b60006020828403121561326f578081fd5b8135611c8181613c5e565b60006020828403121561328b578081fd5b8151611c8181613c5e565b600080604083850312156132a8578081fd5b82356132b381613c5e565b946020939093013593505050565b60008060008060008060c087890312156132d9578182fd5b86516132e481613c5e565b6020880151604089015160608a015160808b015160a0909b0151939c929b509099909850965090945092505050565b600060208284031215613324578081fd5b8151611c8181613c73565b600060208284031215613340578081fd5b5035919050565b600060208284031215613358578081fd5b5051919050565b60008060008060008060c08789031215613377578182fd5b86519550602087015161338981613c5e565b8095505060408701519350606087015192506080870151915060a08701516133b081613c73565b809150509295509295509295565b600080604083850312156133d0578182fd5b50508035926020909101359150565b600080600080600060a086880312156133f6578081fd5b855194506020860151935060408601519250606086015161341681613c73565b60808701519092506002811061342a578182fd5b809150509295509295909350565b6000806000806080858703121561344d578384fd5b5050823594602084013594506040840135936060013592509050565b600160a060020a0391909116815260200190565b600160a060020a0392831681529116602082015260400190565b600160a060020a039384168152919092166020820152604081019190915260600190565b600160a060020a03929092168252602082015260400190565b600160a060020a039390931683526020830191909152604082015260600190565b600160a060020a03979097168752602087019590955260408601939093526060850191909152608084015260a0830152151560c082015260e00190565b600160a060020a0394909416845260208401929092526040830152606082015260800190565b600160a060020a03969096168652602086019490945260408501929092526060840152608083015260a082015260c00190565b901515815260200190565b6000602080835283518082850152825b818110156135c2578581018301518582016040015282016135a6565b818111156135d35783604083870101525b50601f01601f1916929092016040019392505050565b60208082526031908201527f417070726f766520616e20616d6f756e74203e203020666f7220746f6b656e2060408201527f6265666f72652070726f63656564696e67000000000000000000000000000000606082015260800190565b6020808252818101527f496e646976696475616c2068617320616c72656164792077697468647261776e604082015260600190565b6020808252601b908201527f536166654d6174683a206164646974696f6e206f766572666c6f770000000000604082015260600190565b60208082526036908201527f436f756c64206e6f7420636f6d706c657465206465706f7369742070726f636560408201527f73732066726f6d20746f6b656e20636f6e747261637400000000000000000000606082015260800190565b60208082526026908201527f6d656d626572206465706f736974207265616c6c792069736e277420776f727460408201527f68206d7563680000000000000000000000000000000000000000000000000000606082015260800190565b6020808252601f908201527f556e617574686f72697a65642061636365737320746f20636f6e747261637400604082015260600190565b60208082526024908201527f5365727669636520636f6e747261637420686173206265656e2064657072656360408201527f6174656400000000000000000000000000000000000000000000000000000000606082015260800190565b60208082526032908201527f636f756c64206e6f7420617070726f766520666275736420746f6b656e20666f60408201527f72206164617074657220636f6e74726163740000000000000000000000000000606082015260800190565b60208082526021908201527f536166654d6174683a206d756c7469706c69636174696f6e206f766572666c6f60408201527f7700000000000000000000000000000000000000000000000000000000000000606082015260800190565b60208082526027908201527f756e737570706f727465642072756c6520646566696e74696f6e20666f72207260408201527f756c652073657400000000000000000000000000000000000000000000000000606082015260800190565b60208082526036908201527f46756e647320617265207374696c6c206c6f636b65642c207761697420756e7460408201527f696c206c6f636b20706572696f64206578706972657300000000000000000000606082015260800190565b6020808252603b908201527f5769746864726177616c2063616e6e6f742062652070726f63657373652c207260408201527f6561736f6e3a20496e73756666696369656e742042616c616e63650000000000606082015260800190565b60208082526035908201527f42616c616e6365206166746572206e6565647320746f2062652067726561746560408201527f72207468616e2062616c616e6365206265666f72650000000000000000000000606082015260800190565b60208082526035908201527f42616c616e6365206265666f7265206e6565647320746f20626520677265617460408201527f6572207468616e2062616c616e63652061667465720000000000000000000000606082015260800190565b6020808252603a908201527f416d6f756e7420746f2062652077697468647261776e206d757374206265206760408201527f726561746572207468616e20636f6d6d6973696f6e2066656573000000000000606082015260800190565b6020808252603a908201527f756e737570706f727465642072756c6520646566696e74696f6e20666f72207060408201527f656e616c74792070657263656e746167652072756c6520736574000000000000606082015260800190565b60208082526024908201527f4d696e696d756d206c6f636b20706572696f64206d7573742062652033206d6f60408201527f6e74687300000000000000000000000000000000000000000000000000000000606082015260800190565b6020808252601d908201527f436f756c64206e6f7420636f6d706c657465207769746864726177616c000000604082015260600190565b90815260200190565b918252602082015260400190565b9687526020870195909552604086019390935260608501919091526080840152600160a060020a031660a0830152151560c082015260e00190565b958652602086019490945260408501929092526060840152600160a060020a03166080830152151560a082015260c00190565b600160a060020a038116811461195157600080fd5b801515811461195157600080fdfea2646970667358221220bdb5736a9db0aceff925ca75057d49adc26aa0a3080b10ea23f7cbb2f623614a64736f6c63430006060033",
  "immutableReferences": {},
  "source": "// SPDX-License-Identifier: MIT\r\n\r\npragma solidity ^0.6.0;\r\n\r\nimport \"./IClientRecordSchema.sol\";\r\nimport \"./IGroupSchema.sol\";\r\nimport \"./SafeMath.sol\";\r\nimport \"./Ownable.sol\";\r\nimport \"./SafeERC20.sol\";\r\n// import \"./IDaiLendingService.sol\";\r\nimport \"./IClientRecord.sol\";\r\n// import \"./IERC20.sol\";\r\nimport \"./Address.sol\";\r\nimport \"./ISavingsConfig.sol\";\r\nimport \"./ISavingsConfigSchema.sol\";\r\nimport \"./ITreasury.sol\";\r\nimport \"./IRewardConfig.sol\";\r\nimport \"./IBEP20.sol\";\r\nimport \"./IForTubeBankService.sol\";\r\nimport \"./IFToken.sol\";\r\nimport \"./IXendToken.sol\";\r\nimport \"./IGroups.sol\";\r\n\r\npragma experimental ABIEncoderV2;\r\n\r\n\r\ncontract XendFinanceIndividual_Yearn_V1 is\r\n    Ownable,\r\n    IClientRecordSchema,\r\n    ISavingsConfigSchema\r\n{\r\n    using SafeMath for uint256;\r\n    \r\n    using SafeERC20 for IFToken;\r\n    \r\n    using SafeERC20 for IBEP20;\r\n\r\n    using Address for address payable;\r\n\r\n    event UnderlyingAssetDeposited(\r\n        address payable user,\r\n        uint256 underlyingAmount,\r\n        uint256 derivativeAmount,\r\n        uint256 balance\r\n    );\r\n\r\n    event DerivativeAssetWithdrawn(\r\n        address payable user,\r\n        uint256 underlyingAmount,\r\n        uint256 derivativeAmount,\r\n        uint256 balance\r\n    );\r\n    \r\n    event DerivativeAssetWithdrawnFromFixed(\r\n          address payable user,\r\n        uint256 underlyingAmount,\r\n        uint256 derivativeAmount        );\r\n    \r\n      event XendTokenReward (\r\n        uint date,\r\n        address payable indexed member,\r\n        uint amount\r\n    );\r\n    \r\n   \r\n    uint minLockPeriod = 7890000;\r\n    \r\n    \r\n  \r\n\r\n    IForTubeBankService fortubeService;\r\n    IBEP20 busdToken;      //  BEP20 - ForTube BUSD Testnet TODO: change to live when moving to mainnet \r\n    IFToken fBusdToken;   //  BEP20 - fBUSD Testnet TODO: change to mainnet\r\n    IClientRecord clientRecordStorage;\r\n    IGroups groupStorage;\r\n    ISavingsConfig savingsConfig;\r\n    IRewardConfig rewardConfig;\r\n    IXendToken xendToken;\r\n    ITreasury treasury;\r\n\r\n    bool isDeprecated = false;\r\n\r\n    //address LendingAdapterAddress;\r\n\r\n    address FortubeBankAdapter;\r\n    address TokenAddress;\r\n\r\n\r\n    string constant XEND_FINANCE_COMMISION_DIVISOR = \"XEND_FINANCE_COMMISION_DIVISOR\";\r\n    string constant XEND_FINANCE_COMMISION_DIVIDEND = \"XEND_FINANCE_COMMISION_DIVIDEND\";\r\n    \r\n    mapping(address=>uint) MemberToXendTokenRewardMapping;  //  This tracks the total amount of xend token rewards a member has received\r\n    \r\n    uint256 lastRecordId;\r\n    \r\n     uint256 _totalTokenReward;      //  This tracks the total number of token rewards distributed on the individual savings\r\n\r\n    constructor(\r\n        //address fortubeBankAdapterAddress,\r\n        address fortubeServiceAddress,\r\n        address tokenAddress,\r\n        address clientRecordStorageAddress,\r\n        address groupStorageAddress,\r\n        address savingsConfigAddress,\r\n        address derivativeTokenAddress,\r\n        address rewardConfigAddress,\r\n        address treasuryAddress,\r\n        address xendTokenAddress\r\n    ) public {\r\n        fortubeService = IForTubeBankService(fortubeServiceAddress);\r\n        busdToken = IBEP20(tokenAddress);\r\n        TokenAddress = tokenAddress;\r\n        clientRecordStorage = IClientRecord(clientRecordStorageAddress);\r\n        groupStorage = IGroups(groupStorageAddress);\r\n        savingsConfig = ISavingsConfig(savingsConfigAddress);\r\n        fBusdToken = IFToken(derivativeTokenAddress);\r\n        rewardConfig = IRewardConfig(rewardConfigAddress);\r\n        treasury = ITreasury(treasuryAddress);\r\n        xendToken = IXendToken(xendTokenAddress);\r\n    }\r\n\r\n    function deprecateContract(address newServiceAddress)\r\n        external\r\n        onlyOwner\r\n        onlyNonDeprecatedCalls\r\n    {\r\n        isDeprecated = true;\r\n        clientRecordStorage.reAssignStorageOracle(newServiceAddress);\r\n        groupStorage.reAssignStorageOracle(newServiceAddress);\r\n\r\n        uint256 derivativeTokenBalance = fBusdToken.balanceOf(\r\n            address(this)\r\n        );\r\n        fBusdToken.transfer(newServiceAddress, derivativeTokenBalance);\r\n         uint256 tokenBalance = busdToken.balanceOf(\r\n            address(this)\r\n        );\r\n        busdToken.transfer(newServiceAddress,tokenBalance);\r\n    }\r\n   \r\n\r\n       function GetTotalTokenRewardDistributed() external view returns(uint256){\r\n            return _totalTokenReward;\r\n        }\r\n      function _UpdateMemberToXendTokeRewardMapping(address member, uint rewardAmount) internal onlyNonDeprecatedCalls {\r\n        MemberToXendTokenRewardMapping[member] = MemberToXendTokenRewardMapping[member].add(rewardAmount);\r\n    }\r\n\r\n        function GetMemberXendTokenReward(address member) external view returns(uint) {\r\n        return MemberToXendTokenRewardMapping[member];\r\n    }\r\n    \r\n    function doesClientRecordExist(address depositor)\r\n        external\r\n        view\r\n        onlyNonDeprecatedCalls\r\n        returns (bool)\r\n    {\r\n        return clientRecordStorage.doesClientRecordExist(depositor);\r\n    }\r\n    \r\n    function getAdapterAddress() external  {\r\n        FortubeBankAdapter = fortubeService.GetForTubeAdapterAddress();\r\n    }\r\n\r\n    function getClientRecord(address depositor)\r\n        external\r\n        view\r\n        onlyNonDeprecatedCalls\r\n        returns (\r\n            address payable _address,\r\n            uint256 underlyingTotalDeposits,\r\n            uint256 underlyingTotalWithdrawn,\r\n            uint256 derivativeBalance,\r\n            uint256 derivativeTotalDeposits,\r\n            uint256 derivativeTotalWithdrawn\r\n        )\r\n    {\r\n        ClientRecord memory clientRecord = _getClientRecordByAddress(depositor);\r\n        return (\r\n            clientRecord._address,\r\n            clientRecord.underlyingTotalDeposits,\r\n            clientRecord.underlyingTotalWithdrawn,\r\n            clientRecord.derivativeBalance,\r\n            clientRecord.derivativeTotalDeposits,\r\n            clientRecord.derivativeTotalWithdrawn\r\n        );\r\n    }\r\n\r\n    function getClientRecord()\r\n        external\r\n        view\r\n        onlyNonDeprecatedCalls\r\n        returns (\r\n            address payable _address,\r\n            uint256 underlyingTotalDeposits,\r\n            uint256 underlyingTotalWithdrawn,\r\n            uint256 derivativeBalance,\r\n            uint256 derivativeTotalDeposits,\r\n            uint256 derivativeTotalWithdrawn\r\n        )\r\n    {\r\n        ClientRecord memory clientRecord = _getClientRecordByAddress(\r\n            msg.sender\r\n        );\r\n\r\n        return (\r\n            clientRecord._address,\r\n            clientRecord.underlyingTotalDeposits,\r\n            clientRecord.underlyingTotalWithdrawn,\r\n            clientRecord.derivativeBalance,\r\n            clientRecord.derivativeTotalDeposits,\r\n            clientRecord.derivativeTotalWithdrawn\r\n        );\r\n    }\r\n\r\n    function getClientRecordByIndex(uint256 index)\r\n        external\r\n        view\r\n        onlyNonDeprecatedCalls\r\n        returns (\r\n            address payable _address,\r\n            uint256 underlyingTotalDeposits,\r\n            uint256 underlyingTotalWithdrawn,\r\n            uint256 derivativeBalance,\r\n            uint256 derivativeTotalDeposits,\r\n            uint256 derivativeTotalWithdrawn\r\n        )\r\n    {\r\n        ClientRecord memory clientRecord = _getClientRecordByIndex(index);\r\n        return (\r\n            clientRecord._address,\r\n            clientRecord.underlyingTotalDeposits,\r\n            clientRecord.underlyingTotalWithdrawn,\r\n            clientRecord.derivativeBalance,\r\n            clientRecord.derivativeTotalDeposits,\r\n            clientRecord.derivativeTotalWithdrawn\r\n        );\r\n    }\r\n\r\n    function _getClientRecordByIndex(uint256 index)\r\n        internal\r\n        view\r\n        returns (ClientRecord memory)\r\n    {\r\n        (\r\n            address payable _address,\r\n            uint256 underlyingTotalDeposits,\r\n            uint256 underlyingTotalWithdrawn,\r\n            uint256 derivativeBalance,\r\n            uint256 derivativeTotalDeposits,\r\n            uint256 derivativeTotalWithdrawn\r\n        ) = clientRecordStorage.getClientRecordByIndex(index);\r\n        return\r\n            ClientRecord(\r\n                true,\r\n                _address,\r\n                underlyingTotalDeposits,\r\n                underlyingTotalWithdrawn,\r\n                derivativeBalance,\r\n                derivativeTotalDeposits,\r\n                derivativeTotalWithdrawn\r\n            );\r\n    }\r\n\r\n    function _getClientRecordByAddress(address member)\r\n        internal\r\n        view\r\n        returns (ClientRecord memory)\r\n    {\r\n        (\r\n            address payable _address,\r\n            uint256 underlyingTotalDeposits,\r\n            uint256 underlyingTotalWithdrawn,\r\n            uint256 derivativeBalance,\r\n            uint256 derivativeTotalDeposits,\r\n            uint256 derivativeTotalWithdrawn\r\n        ) = clientRecordStorage.getClientRecordByAddress(member);\r\n\r\n        return\r\n            ClientRecord(\r\n                true,\r\n                _address,\r\n                underlyingTotalDeposits,\r\n                underlyingTotalWithdrawn,\r\n                derivativeBalance,\r\n                derivativeTotalDeposits,\r\n                derivativeTotalWithdrawn\r\n            );\r\n    }\r\n    \r\n    function setMinimumLockPeriod (uint minimumLockPeriod) external onlyNonDeprecatedCalls onlyOwner {\r\n        minLockPeriod = minimumLockPeriod;\r\n    }\r\n    \r\n    function _getFixedDepositRecordById(uint recordId) internal returns (FixedDepositRecord memory) {\r\n        (uint recordId, address payable depositorId, uint amount, uint depositDateInSeconds, uint lockPeriodInSeconds, bool hasWithdrawn) = clientRecordStorage.GetRecordById(recordId);\r\n    }\r\n    \r\n   \r\n\r\n    function withdraw(uint256 derivativeAmount)\r\n        external\r\n        onlyNonDeprecatedCalls\r\n    {\r\n      address payable recipient = msg.sender;\r\n      \r\n      _withdraw(recipient, derivativeAmount);\r\n    }\r\n\r\n    function withdrawDelegate(\r\n        address payable recipient,\r\n        uint256 derivativeAmount\r\n    ) external onlyNonDeprecatedCalls onlyOwner {\r\n        _withdraw(recipient, derivativeAmount);\r\n    }\r\n    \r\n    function withdrawByShares(uint256 derivativeAmount) external {\r\n        \r\n        FortubeBankAdapter = fortubeService.GetForTubeAdapterAddress();\r\n        \r\n        fBusdToken.approve(FortubeBankAdapter, derivativeAmount);\r\n        \r\n        fortubeService.WithdrawBySharesOnly(derivativeAmount);\r\n    }\r\n\r\n    function _withdraw(address payable recipient, uint256 derivativeAmount)\r\n        internal\r\n    {\r\n        _validateUserBalanceIsSufficient(recipient, derivativeAmount);\r\n\r\n        uint256 balanceBeforeWithdraw = fortubeService.UserBUSDBalance(address(this));\r\n        \r\n        FortubeBankAdapter = fortubeService.GetForTubeAdapterAddress();\r\n\r\n         bool isApprovalSuccessful = fBusdToken.approve(FortubeBankAdapter,derivativeAmount);\r\n         \r\n         require(isApprovalSuccessful == true, 'could not approve fbusd token for adapter contract');\r\n        \r\n         fortubeService.WithdrawBySharesOnly(derivativeAmount);\r\n\r\n        uint256 balanceAfterWithdraw = fortubeService.UserBUSDBalance(address(this));\r\n\r\n        require(balanceAfterWithdraw>balanceBeforeWithdraw, \"Balance before needs to be greater than balance after\");\r\n\r\n        uint256 amountOfUnderlyingAssetWithdrawn =  balanceAfterWithdraw.sub(\r\n            balanceBeforeWithdraw\r\n        );\r\n        \r\n\r\n        uint256 commissionFees = _computeXendFinanceCommisions(\r\n            amountOfUnderlyingAssetWithdrawn\r\n        );\r\n\r\n        require(amountOfUnderlyingAssetWithdrawn>commissionFees, \"Amount to be withdrawn must be greater than commision fees\");\r\n        uint256 amountToSendToDepositor = amountOfUnderlyingAssetWithdrawn.sub(\r\n            commissionFees\r\n        );\r\n            \r\n        //busdToken.approve(recipient, amountToSendToDepositor);\r\n\r\n        bool isSuccessful = busdToken.transfer(\r\n            recipient,\r\n            amountToSendToDepositor\r\n        );\r\n\r\n        require(isSuccessful == true, \"Could not complete withdrawal\");\r\n\r\n        if (commissionFees > 0) {\r\n            busdToken.approve(address(treasury), commissionFees);\r\n            treasury.depositToken(address(busdToken));\r\n        }\r\n\r\n        ClientRecord memory clientRecord = _updateClientRecordAfterWithdrawal(\r\n            recipient,\r\n            amountOfUnderlyingAssetWithdrawn,\r\n            derivativeAmount\r\n        );\r\n        _updateClientRecord(clientRecord);\r\n\r\n        emit DerivativeAssetWithdrawn(\r\n            recipient,\r\n            amountOfUnderlyingAssetWithdrawn,\r\n            derivativeAmount,\r\n            clientRecord.derivativeBalance\r\n        );\r\n    }\r\n\r\n    function _validateUserBalanceIsSufficient(\r\n        address payable recipient,\r\n        uint256 derivativeAmount\r\n    ) internal view returns (uint256) {\r\n        ClientRecord memory clientRecord = _getClientRecordByAddress(recipient);\r\n\r\n        uint256 derivativeBalance = clientRecord.derivativeBalance;\r\n\r\n        require(\r\n            derivativeBalance >= derivativeAmount,\r\n            \"Withdrawal cannot be processe, reason: Insufficient Balance\"\r\n        );\r\n    }\r\n    \r\n  \r\n    \r\n    function _validateLockTimeHasElapsedAndHasNotWithdrawn (uint256 recordId, uint256 derivativeAmount) internal {\r\n        \r\n     FixedDepositRecord memory depositRecord =\r\n            _getFixedDepositRecordById(recordId);\r\n\r\n        uint256 lockPeriod = depositRecord.lockPeriodInSeconds;\r\n        uint256 maturityDate =\r\n            depositRecord.depositDateInSeconds.add(lockPeriod);\r\n\r\n        bool hasWithdrawn = depositRecord.hasWithdrawn;\r\n\r\n        require(!hasWithdrawn, \"Individual has already withdrawn\");\r\n\r\n        uint256 currentTimeStamp = now;\r\n\r\n        require(\r\n            currentTimeStamp >= maturityDate,\r\n            \"Funds are still locked, wait until lock period expires\"\r\n        );\r\n    \r\n    }\r\n\r\n    function _computeXendFinanceCommisions(uint256 worthOfMemberDepositNow)\r\n        internal\r\n        returns (uint256)\r\n    {\r\n        uint256 dividend = _getDividend();\r\n        uint256 divisor = _getDivisor();\r\n\r\n        require(\r\n            worthOfMemberDepositNow > 0,\r\n            \"member deposit really isn't worth much\"\r\n        );\r\n\r\n        return worthOfMemberDepositNow.mul(dividend).div(divisor);\r\n    }\r\n\r\n    function _getDivisor() internal returns (uint256) {\r\n        (\r\n            uint256 minimumDivisor,\r\n            uint256 maximumDivisor,\r\n            uint256 exactDivisor,\r\n            bool appliesDivisor,\r\n            RuleDefinition ruleDefinitionDivisor\r\n        ) = savingsConfig.getRuleSet(XEND_FINANCE_COMMISION_DIVISOR);\r\n\r\n        require(\r\n            appliesDivisor == true,\r\n            \"unsupported rule defintion for rule set\"\r\n        );\r\n\r\n        require(\r\n            ruleDefinitionDivisor == RuleDefinition.VALUE,\r\n            \"unsupported rule defintion for penalty percentage rule set\"\r\n        );\r\n        return exactDivisor;\r\n    }\r\n\r\n    function _getDividend() internal returns (uint256) {\r\n        (\r\n            uint256 minimumDividend,\r\n            uint256 maximumDividend,\r\n            uint256 exactDividend,\r\n            bool appliesDividend,\r\n            RuleDefinition ruleDefinitionDividend\r\n        ) = savingsConfig.getRuleSet(XEND_FINANCE_COMMISION_DIVIDEND);\r\n\r\n        require(\r\n            appliesDividend == true,\r\n            \"unsupported rule defintion for rule set\"\r\n        );\r\n\r\n        require(\r\n            ruleDefinitionDividend == RuleDefinition.VALUE,\r\n            \"unsupported rule defintion for penalty percentage rule set\"\r\n        );\r\n        return exactDividend;\r\n    }\r\n\r\n    function deposit() external onlyNonDeprecatedCalls {\r\n        address payable depositor = msg.sender;\r\n        _deposit(depositor);\r\n    }\r\n\r\n    function depositDelegate(address payable depositorAddress)\r\n        external\r\n        onlyNonDeprecatedCalls\r\n        onlyOwner\r\n    {\r\n        _deposit(depositorAddress);\r\n    }\r\n    \r\n    function FixedDeposit(uint256 depositDateInSeconds, uint256 lockPeriodInSeconds) external onlyNonDeprecatedCalls {\r\n        address payable depositorAddress = msg.sender;\r\n        \r\n        address recipient = address(this);\r\n        \r\n         uint256 amountTransferrable = busdToken.allowance(\r\n            depositorAddress,\r\n            recipient\r\n        );\r\n        \r\n        require(lockPeriodInSeconds >= minLockPeriod, \"Minimum lock period must be 3 months\");\r\n\r\n        require(\r\n            amountTransferrable > 0,\r\n            \"Approve an amount > 0 for token before proceeding\"\r\n        );\r\n        bool isSuccessful = busdToken.transferFrom(\r\n            depositorAddress,\r\n            recipient,\r\n            amountTransferrable\r\n        );\r\n        require(\r\n            isSuccessful == true,\r\n            \"Could not complete deposit process from token contract\"\r\n        );\r\n       \r\n\r\n        uint256 balanceBeforeDeposit = fortubeService.UserShares(address(this));\r\n        \r\n        FortubeBankAdapter = fortubeService.GetForTubeAdapterAddress();\r\n\r\n         busdToken.approve(FortubeBankAdapter, amountTransferrable);\r\n\r\n        fortubeService.Save(amountTransferrable);\r\n\r\n        uint256 balanceAfterDeposit = fortubeService.UserShares(address(this));\r\n\r\n        uint256 amountOfyDai = balanceAfterDeposit.sub(balanceBeforeDeposit);\r\n        \r\n        \r\n    \r\n        clientRecordStorage.CreateDepositRecordMapping(amountTransferrable,amountOfyDai, lockPeriodInSeconds, depositDateInSeconds, depositorAddress, false);\r\n        \r\n        clientRecordStorage.CreateDepositorToDepositRecordIndexToRecordIDMapping(depositorAddress, clientRecordStorage.GetRecordId());\r\n        \r\n        clientRecordStorage.CreateDepositorAddressToDepositRecordMapping(depositorAddress, clientRecordStorage.GetRecordId(), amountTransferrable,amountOfyDai, lockPeriodInSeconds, depositDateInSeconds, false);\r\n            \r\n\r\n      \r\n        emit UnderlyingAssetDeposited(\r\n            depositorAddress,\r\n            amountTransferrable,\r\n            amountOfyDai,\r\n            amountTransferrable\r\n        );\r\n        \r\n    }\r\n    \r\n    function WithdrawFromFixedDeposit (uint recordId, uint amount, uint256 depositDateInSeconds, uint256 lockPeriodInSeconds) external onlyNonDeprecatedCalls {\r\n        \r\n        address payable recipient = msg.sender;\r\n        \r\n         FixedDepositRecord memory depositRecord = _getFixedDepositRecordById(recordId);\r\n          \r\n         \r\n          \r\n          uint256 depositDate = depositDateInSeconds;\r\n          \r\n          uint256 lockPeriod = lockPeriodInSeconds;\r\n          \r\n           _validateLockTimeHasElapsedAndHasNotWithdrawn(recordId, amount);\r\n           \r\n           \r\n\r\n        uint256 balanceBeforeWithdraw = fortubeService.UserBUSDBalance(address(this));\r\n        \r\n        FortubeBankAdapter = fortubeService.GetForTubeAdapterAddress();\r\n\r\n         bool isApprovalSuccessful = fBusdToken.approve(FortubeBankAdapter,amount);\r\n         \r\n         require(isApprovalSuccessful == true, 'could not approve fbusd token for adapter contract');\r\n        \r\n         fortubeService.WithdrawBySharesOnly(amount);\r\n\r\n        uint256 balanceAfterWithdraw = fortubeService.UserBUSDBalance(address(this));\r\n\r\n        require(balanceAfterWithdraw>balanceBeforeWithdraw, \"Balance after needs to be greater than balance before\");\r\n\r\n        uint256 amountOfUnderlyingAssetWithdrawn =  balanceAfterWithdraw.sub(\r\n            balanceBeforeWithdraw\r\n        );\r\n        \r\n\r\n        uint256 commissionFees = _computeXendFinanceCommisions(\r\n            amountOfUnderlyingAssetWithdrawn\r\n        );\r\n\r\n        require(amountOfUnderlyingAssetWithdrawn>commissionFees, \"Amount to be withdrawn must be greater than commision fees\");\r\n        \r\n    \r\n        uint256 amountToSendToDepositor = amountOfUnderlyingAssetWithdrawn.sub(\r\n            commissionFees\r\n        );\r\n            \r\n        //busdToken.approve(recipient, amountToSendToDepositor);\r\n\r\n       busdToken.transfer(\r\n            recipient,\r\n            amountToSendToDepositor\r\n        );\r\n\r\n        if (commissionFees > 0) {\r\n            busdToken.approve(address(treasury), commissionFees);\r\n            treasury.depositToken(address(busdToken));\r\n        }\r\n       clientRecordStorage.UpdateDepositRecordMapping(recordId, amount,0, lockPeriod, depositDate, msg.sender, true);\r\n       clientRecordStorage.CreateDepositorAddressToDepositRecordMapping(recipient, depositRecord.recordId, depositRecord.amount, 0,lockPeriod, depositDate, true);\r\n    \r\n        \r\n        _rewardUserWithTokens(\r\n        lockPeriod,\r\n        amount,\r\n        recipient\r\n        );\r\n\r\n\r\n        emit DerivativeAssetWithdrawnFromFixed(\r\n            recipient,\r\n            amountOfUnderlyingAssetWithdrawn,\r\n            amount\r\n        );\r\n    }\r\n    \r\n   \r\n    \r\n\r\n    function _deposit(address payable depositorAddress) internal {\r\n        address recipient = address(this);\r\n        uint256 amountTransferrable = busdToken.allowance(\r\n            depositorAddress,\r\n            recipient\r\n        );\r\n\r\n        require(\r\n            amountTransferrable > 0,\r\n            \"Approve an amount > 0 for token before proceeding\"\r\n        );\r\n        bool isSuccessful = busdToken.transferFrom(\r\n            depositorAddress,\r\n            recipient,\r\n            amountTransferrable\r\n        );\r\n        require(\r\n            isSuccessful == true,\r\n            \"Could not complete deposit process from token contract\"\r\n        );\r\n\r\n       \r\n\r\n        uint256 balanceBeforeDeposit = fBusdToken.balanceOf(address(this));\r\n        \r\n        FortubeBankAdapter = fortubeService.GetForTubeAdapterAddress();\r\n\r\n         busdToken.approve(FortubeBankAdapter, amountTransferrable);\r\n\r\n        fortubeService.Save(amountTransferrable);\r\n\r\n        uint256 balanceAfterDeposit = fBusdToken.balanceOf(address(this));\r\n\r\n        uint256 amountOfyDai = balanceAfterDeposit.sub(balanceBeforeDeposit);\r\n        ClientRecord memory clientRecord = _updateClientRecordAfterDeposit(\r\n            depositorAddress,\r\n            amountTransferrable,\r\n            amountOfyDai\r\n        );\r\n\r\n        bool exists = clientRecordStorage.doesClientRecordExist(\r\n            depositorAddress\r\n        );\r\n\r\n        if (exists) _updateClientRecord(clientRecord);\r\n        else {\r\n            clientRecordStorage.createClientRecord(\r\n                clientRecord._address,\r\n                clientRecord.underlyingTotalDeposits,\r\n                clientRecord.underlyingTotalWithdrawn,\r\n                clientRecord.derivativeBalance,\r\n                clientRecord.derivativeTotalDeposits,\r\n                clientRecord.derivativeTotalWithdrawn\r\n            );\r\n        }\r\n\r\n        _updateTotalTokenDepositAmount(amountTransferrable);\r\n\r\n\r\n        emit UnderlyingAssetDeposited(\r\n            depositorAddress,\r\n            amountTransferrable,\r\n            amountOfyDai,\r\n            clientRecord.derivativeBalance\r\n        );\r\n    }\r\n     function _updateTotalTokenDepositAmount(uint256 amount) internal {\r\n        groupStorage.incrementTokenDeposit(TokenAddress, amount);\r\n    }\r\n\r\n    function _updateClientRecordAfterDeposit(\r\n        address payable client,\r\n        uint256 underlyingAmountDeposited,\r\n        uint256 derivativeAmountDeposited\r\n    ) internal returns (ClientRecord memory) {\r\n        bool exists = clientRecordStorage.doesClientRecordExist(client);\r\n        if (!exists) {\r\n            ClientRecord memory record = ClientRecord(\r\n                true,\r\n                client,\r\n                underlyingAmountDeposited,\r\n                0,\r\n                derivativeAmountDeposited,\r\n                derivativeAmountDeposited,\r\n                0\r\n            );\r\n\r\n           \r\n            return record;\r\n        } else {\r\n            ClientRecord memory record = _getClientRecordByAddress(client);\r\n\r\n            record.underlyingTotalDeposits = record.underlyingTotalDeposits.add(\r\n                underlyingAmountDeposited\r\n            );\r\n            record.derivativeTotalDeposits = record.derivativeTotalDeposits.add(\r\n                derivativeAmountDeposited\r\n            );\r\n            record.derivativeBalance = record.derivativeBalance.add(\r\n                derivativeAmountDeposited\r\n            );\r\n\r\n            return record;\r\n        }\r\n    }\r\n\r\n    function _updateClientRecordAfterWithdrawal(\r\n        address payable client,\r\n        uint256 underlyingAmountWithdrawn,\r\n        uint256 derivativeAmountWithdrawn\r\n    ) internal returns (ClientRecord memory) {\r\n        ClientRecord memory record = _getClientRecordByAddress(client);\r\n\r\n        record.underlyingTotalWithdrawn = record.underlyingTotalWithdrawn.add(\r\n            underlyingAmountWithdrawn\r\n        );\r\n\r\n        record.derivativeTotalWithdrawn = record.derivativeTotalWithdrawn.add(\r\n            derivativeAmountWithdrawn\r\n        );\r\n        record.derivativeBalance = record.derivativeBalance.sub(\r\n            derivativeAmountWithdrawn\r\n        );\r\n\r\n        return record;\r\n    }\r\n    \r\n     function _emitXendTokenReward(address payable member, uint256 amount) internal {\r\n    emit XendTokenReward(now, member, amount);\r\n}\r\n\r\nfunction _rewardUserWithTokens(\r\n    uint256 totalLockPeriod,\r\n    uint256 amountDeposited,\r\n    address payable recipient\r\n) internal {\r\n    uint256 numberOfRewardTokens = rewardConfig\r\n        .CalculateIndividualSavingsReward(\r\n        totalLockPeriod,\r\n        amountDeposited\r\n    );\r\n\r\n    if (numberOfRewardTokens > 0) {\r\n        xendToken.mint(recipient, numberOfRewardTokens);\r\n        _UpdateMemberToXendTokeRewardMapping(recipient,numberOfRewardTokens);\r\n         //  increase the total number of xend token rewards distributed\r\n            _totalTokenReward = _totalTokenReward.add(numberOfRewardTokens);\r\n          _emitXendTokenReward(recipient, numberOfRewardTokens);\r\n\r\n    }\r\n\r\n}\r\n\r\n    function _updateClientRecord(ClientRecord memory clientRecord) internal {\r\n        clientRecordStorage.updateClientRecord(\r\n            clientRecord._address,\r\n            clientRecord.underlyingTotalDeposits,\r\n            clientRecord.underlyingTotalWithdrawn,\r\n            clientRecord.derivativeBalance,\r\n            clientRecord.derivativeTotalDeposits,\r\n            clientRecord.derivativeTotalWithdrawn\r\n        );\r\n    }\r\n\r\n    modifier onlyNonDeprecatedCalls() {\r\n        require(isDeprecated == false, \"Service contract has been deprecated\");\r\n        _;\r\n    }\r\n}",
  "sourcePath": "C:/Users/MKOPA/Documents/WORK/UGARSOFT/Fortube-Individual-Group-BSC/contracts/XendFinanceIndividual_Yearn_V1.sol",
  "compiler": {
    "name": "solc",
    "version": "0.6.6+commit.6c089d02.Emscripten.clang"
  },
  "schemaVersion": "3.3.4",
  "updatedAt": "2021-03-30T20:55:28.140Z",
  "devdoc": {
    "methods": {}
  },
  "userdoc": {
    "methods": {}
  }
}